:04000000C8EF01F054
:10000800F29EF2A409D0F294190E1526000E1622BB
:0C001800190E1726000E1822F28E11009F
:06002400000000001200C4
:10002A000F0E0C6E470E0D6E0D2EFED70C2EFCD742
:06003A00000000001200AE
:0A004000210E0D6E0D2EFED71200EA
:10004A00086A096A100E0C6E013408360936045023
:10005A00085E0550D8A0053C095ED8B007D0045008
:10006A0008260550D8B0053C0926D8900036013636
:06007A000C2EEAD7120073
:1000800045BE02D08A9601D08A8645BC02D08A94A9
:1000900001D08A8445BA02D08A9201D08A8245B8BA
:1000A00002D08A9001D08A8019B002D08A8801D00B
:1000B0008A988A8AB7DF8A9A45B602D08A9601D092
:1000C0008A8645B402D08A9401D08A8445B202D08F
:1000D0008A9201D08A8245B002D08A9001D08A806B
:1000E00019B002D08A8801D08A988A8A9BDF8A9ABE
:0C00F00019A002D09ADF01D0A3DF12009B
:0C00FC0019903EC045F0BEDF19801200D4
:10010800426A050E425C0AE242504024E16E000E4B
:100118004120E26E200EE66E422AF3D74250402478
:10012800E16E000E4120E26EE66A4206425040242B
:10013800436E000E4120446E0A0E046E000E056EDA
:100148003EC000F03FC001F07CDF08C000F009C0ED
:1001580001F0300E002643C0E1FF44C0E2FF00C0BA
:10016800E6FF0A0E046E000E056E3EC000F03FC0AA
:1001780001F067DF00C03EF001C03FF0000E01183B
:1001880002E1000E001801E102D04206CFD71200AA
:10019800939A939893909392939493968A9A8A9821
:1001A8008A968A948A928A903CDF3BDF3ADF8A8279
:1001B8008A808A8A33DF8A9A34DF8A8A2FDF8A9A8A
:1001C80030DF8A8A2BDF8A9A2CDF8A908A8A26DF98
:1001D8008A9A27DF8A8A22DF8A9A8A928A868A8A74
:1001E8001DDF8A9A1EDF8A968A808A8A17DF8A9A92
:1001F8008A908A8A13DF8A9A14DF8A8A0FDF8A9A9A
:100208008A808A8A0BDF8A9A0CDF8A908A8A06DFBC
:100218008A9A8A868A848A828A808A8AFFDE8A9A69
:0602280000DF1980120046
:10022E000900F5CFE6FF0006FBE10106F9E1120039
:10023E000FD0800E346E19D0C00E346E16D0940EC0
:10024E00346E13D0D40E346E10D0800E346E0DD0AA
:10025E003450010AEEE03450020AEEE03450030A44
:10026E00EEE03450040AEEE0F0D73504006E345060
:10027E00002600C034F000C045F0FBDE1990386A4D
:10028E0038503624E96E000E3720EA6EEE520BE03F
:10029E0038503624E96E000E3720EA6EEECF3EF06F
:0A02AE0026DF382AEDD71980120070
:1002B8003A6A3B6A34C03CF035C03DF0800E3518D0
:1002C800006E800E005C02E1000E345C0BE2010E51
:1002D8003A6E000E3B6E345000083C6E35C03DF05F
:1002E800000E3D563CC03EF03DC03FF036C040F0E9
:1002F80037C041F005DF060E386E000E396E000E6D
:10030800006E3950005C02E13850000819E238509C
:100318003624E16E39503720E26E010E385C006EEB
:10032800000E3958016E00503624E96E015037200E
:10033800EA6EEECFE6FF010E385E000E395ADFD7BF
:1003480036C0E1FF37C0E2FF200EE66E3A503B10A0
:100358001AE0386A396A38503624E96E395037203D
:10036800EA6EEE50200A03E1384A392AF4D7010E22
:10037800385E000E395A38503624E16E395037202D
:08038800E26E2D0EE66E12007C
:10039000156A166A176A186A010E1A6E800E1B6EAD
:1003A0001C6AF40E1D6E010E1E6EDC0E1F6E050E15
:1003B000206E640E216E000E226E236A246A256A66
:1003C000266A276A286A296A2A6A2B6A2C6A956A29
:1003D0001F0E926EE00E0F01386F8C6ADDDE010E8B
:1003E000456E4EDE0C0E456E4BDEC70ED56E3D0ED5
:1003F000D66EA00EF26E800E1E18006E800E1618BD
:10040000005C02E115501D5C2BE21C50000A0BE160
:100410001A508C24006E1B5000248C6E1A361A90D1
:100420001B321B9E12D01AC002F00232029E02C082
:100430001AF01BC001F00136019001C01BF0025000
:100440008C5C006E0150005C8C6E8C50FF0A02E1E7
:10045000010E1C6E8C50000AD8B41C6A156A166A0C
:10046000800E030A006E800E1818005C02E117501F
:10047000E80818E22450010A15E1176A186A232ACD
:1004800023C034F0000E356E2D0E366E000E376E22
:1004900013DF010E346E010E356E2D0E366E000E1A
:1004A000376ECDDE000E80B0010E256E000E80B2DC
:1004B000010E266E000E80B4010E276E000E80B66F
:1004C000010E286E000E80B8010E296E255205E03F
:1004D0002950251802E0010E246E265204E02A500D
:1004E0002618D8A4246A275204E02B502718D8A431
:1004F000236A285211E02C5028180EE0800E1E1896
:10050000006E800E2018005C02E11F501D5C04E2AA
:10051000320E1D26000E1E22295211E02D502918E0
:100520000EE0800E2218006E800E1E18005C02E1A4
:100530001D50215C04E2320E1D5E000E1E5A25C0C5
:1005400029F026C02AF027C02BF028C02CF029C0A3
:060550002DF051D7FFD78A
:0105560001A3
:010557008023
:0105580000A2
:02055900F401AB
:02055B00DC05BD
:02055D00640038
:01055F00009B
:01056000009A
:040561000000000096
:040565000000000092
:020000040030CA
:0D000100231F3CFFBF81FF0FC00FE00F4029
:00000001FF
