:0400000045EF00F0D8
:1000080000C015F0F2A406D0F294210E1826000EB6
:1000180019222CD0F2A02AD081AE05D0320E162695
:10002800000E172206D081AC04D0320E165E000EE8
:10003800175A800E1718006E800E005C02E1320E0F
:10004800165C05E2320E166E000E176E0ED0800E8C
:100058000B0A006E800E1718005C02E11650B808F3
:1000680004E2B80E166E0B0E176EF29015C000F073
:02007800110075
:10007A000900F5CFE6FF0006FBE10106F9E11200EF
:10008A00E80E166E030E176E186A196A010E1A6EBA
:10009A00938E938C0F01399F399DC00E626E946ABC
:1000AA00F286F290C70ED56EF28AF294010E8B6E2A
:1000BA00F28E800E1918006E800E1718005C02E18D
:1000CA001650185C1BE31A5207E08BCF00F000367B
:1000DA00009000C08BFF06D08BCF00F00032009E4C
:1000EA0000C08BFF010E8B5C03E3010E1A6E04D075
:1000FA008B508008D8B01A6A186A196ADAD7FFD7FB
:020000040030CA
:0D000100231F3CFFBF81FF03C003E003404D
:00000001FF
