:04000000C4EF01F058
:10000800F2A407D0F29A050E1626000E1722F28ADD
:04001800F29411004D
:10001C000F0E0C6E470E0D6E0D2EFED70C2EFCD750
:06002C00000000001200BC
:06003200000000001200B6
:0A003800210E0D6E0D2EFED71200F2
:10004200086A096A100E0C6E01340836093604502B
:10005200085E0550D8A0053C095ED8B007D0045010
:1000620008260550D8B0053C0926D890003601363E
:060072000C2EEAD712007B
:100078003BBE02D08A9601D08A863BBC02D08A94C5
:1000880001D08A843BBA02D08A9201D08A823BB8D6
:1000980002D08A9001D08A8015B002D08A8801D017
:1000A8008A988A8AC2DF8A9A3BB602D08A9601D099
:1000B8008A863BB402D08A9401D08A843BB202D0AB
:1000C8008A9201D08A823BB002D08A9001D08A807D
:1000D80015B002D08A8801D08A988A8AA6DF8A9ABF
:0C00E80015A002D097DF01D0A3DF1200AA
:0C00F400159034C03BF0BEDF15801200F8
:10010000386A050E385C0AE238503624E16E000E7B
:100110003720E26E200EE66E382AF3D738503624A8
:10012000E16E000E3720E26EE66A3806385036245B
:10013000396E000E37203A6E0A0E046E000E056E00
:1001400034C000F035C001F07CDF08C000F009C009
:1001500001F0300E002639C0E1FF3AC0E2FF00C0D6
:10016000E6FF0A0E046E000E056E34C000F035C0C6
:1001700001F067DF00C034F001C035F0000E011857
:1001800002E1000E001801E102D03806CFD71200BC
:10019000939A939893909392939493968A9A8A9829
:1001A0008A968A948A928A9039DF38DF37DF8A828A
:1001B0008A808A8A3EDF8A9A31DF8A8A3ADF8A9A7F
:1001C0002DDF8A8A36DF8A9A29DF8A908A8A31DF90
:1001D0008A9A24DF8A8A2DDF8A9A8A928A868A8A74
:1001E00028DF8A9A1BDF8A968A808A8A22DF8A9A87
:1001F0008A908A8A1EDF8A9A11DF8A8A1ADF8A9A8F
:100200008A808A8A16DF8A9A09DF8A908A8A11DFB1
:100210008A9A8A868A848A828A808A8A0ADF8A9A65
:06022000FDDE1580120056
:10022600306A316A2AC032F02BC033F0800E2B18A8
:10023600006E800E005C02E1000E2A5C0BE2010EED
:10024600306E000E316E2A500008326E2BC033F02D
:10025600000E335632C034F033C035F02CC036F0C1
:100266002DC037F04ADF060E2E6E000E2F6E000EE2
:10027600006E2F50005C02E12E50000819E22E504D
:100286002C24E16E2F502D20E26E010E2E5C006EA6
:10029600000E2F58016E00502C24E96E01502D20BF
:1002A600EA6EEECFE6FF010E2E5E000E2F5ADFD766
:1002B6002CC0E1FF2DC0E2FF200EE66E305031105B
:1002C6001AE02E6A2F6A2E502C24E96E2F502D200C
:1002D600EA6EEE50200A03E12E4A2F2AF4D7010EC9
:1002E6002E5E000E2F5A2E502C24E16E2F502D20FC
:0802F600E26E2D0EE66E12000F
:1002FE000900F5CFE6FF0006FBE10106F9E1120069
:10030E000FD0800E2A6E19D0C00E2A6E16D0940E03
:10031E002A6E13D0D40E2A6E10D0800E2A6E0DD0F7
:10032E002A50010AEEE02A50020AEEE02A50030A91
:10033E00EEE02A50040AEEE0F0D72B04006E2A50AD
:10034E00002600C02AF000C03BF08FDE15902E6A0A
:10035E002E502C24E96E000E2D20EA6EEE520BE08C
:10036E002E502C24E96E000E2D20EA6EEECF34F0C6
:0A037E00BADE2E2AEDD7158012001A
:100388001E0E276E1E0E286E010E296E956AFF0E30
:100398000F013B6F96943C858D940F0E926EF00E74
:1003A800386FF2DE010E3B6E63DE0C0E3B6E60DED4
:1003B800C70ED56ED90ED66EE00EF26E80B02FD075
:1003C800000E80B4010E236E000E80B6010E256E5D
:1003D800235205E02350241802E0050E2826255252
:1003E80005E02550261802E0050E285E28C027F0F3
:1003F80028C02AF0000E2B6E180E2C6E000E2D6EE3
:100408000EDF010E2A6E010E2B6E180E2C6E000EDA
:100418002D6E79DF23C024F025C026F0CFD727C062
:100428008CFF000E275C3FE3000E80B0010E1F6EAC
:10043800000E80B2010E216E1F5206E01F502018D8
:1004480003E0010E296EF28A215205E0215022189C
:1004580002E0296AF29A23C020F025C026F0800E17
:10046800006E800E1718005C02E1165064081AE24C
:10047800295218E027C02AF0000E2B6E180E2C6E99
:10048800000E2D6ECCDE010E2A6E010E2B6E180E9C
:100498002C6E000E2D6E37DF270627C08CFF166ADC
:0804A800176A8D84BED7FFD74F
:020000040030CA
:0D000100231F3CFFBF81FF0FC00FE00F4029
:00000001FF
