:04000000D3EF03F047
:10000800F2A405D0F29A010E426EF294F28A11001F
:06001800000000001200D0
:10001E000F0E0C6E470E0D6E0D2EFED70C2EFCD74E
:06002E00000000001200BA
:0A003400210E0D6E0D2EFED71200F6
:10003E000B820BAE29EF00F00368026801680068BE
:08004E000A360232FF0E120017
:080056000AAE029E000E12002A
:10005E000B840BAE3AEF00F0010E036E026A016ADA
:0A006E00006A0A360232FF0E12008B
:0E007800026A016A006A086A036A000E12003A
:1000860000016BBF02D08A9601D08A866BBD02D072
:100096008A9401D08A846BBB02D08A9201D08A826C
:1000A6006BB902D08A9001D08A804DB002D08A887E
:1000B60001D08A988A8AADDF8A9A6BB702D08A966F
:1000C60001D08A866BB502D08A9401D08A846BB33C
:1000D60002D08A9201D08A826BB102D08A9001D076
:1000E6008A804DB002D08A8801D08A988A8A91DFA8
:0E00F6008A9A4DA002D090DF01D099DF12004F
:10010400086A096A100E0C6E013408360936045068
:10011400085E0550D8A0053C095ED8B007D004504D
:1001240008260550D8B0053C0926D890003601367B
:060134000C2EEAD71200B8
:10013A000B800BAEA9EF00F0026A0AAEFF0E026E48
:0C014A00016E006E0A360232FF0E120039
:100156000001606B050E605D0AE260516725E16E85
:10016600000E6821E26E200EE66E602BF3D760511A
:100176006725E16E000E6821E26EE66A600760514F
:100186006725696F000E68216A6F0A0E046E000EFD
:10019600056E65C000F066C001F0B1DF08C000F072
:1001A60009C001F0300E002669C0E1FF6AC0E2FF17
:1001B60000C0E6FF0A0E046E000E056E65C000F074
:1001C60066C001F09CDF00C065F001C066F0000E5D
:1001D600011802E1000E001801E102D06007CFD736
:0201E600120005
:1001E8000CB036EF01F00CA2DCEF01F00E6A000E45
:1001F80002644DEF01F0F00E0214D8A418EF01F0DC
:10020800023A01380F0B02260138F00B016E003854
:100218000F0B01260038F00B006E08380F0B002674
:100228000838F00B086E0E84D89002BE31EF01F04A
:1002380008360036013602360E2A02BE31EF01F0CA
:1002480008360036013602360E2A02BE31EF01F0BA
:1002580008360036013602360E2A0E500364D2EFF5
:1002680001F0035E0BBC08AED7EF01F0D880800E1A
:1002780008640030000E002201220222D8A0D7EF25
:1002880001F0023201320032034ADCEF01F0D7EF0D
:1002980001F001C002F000C001F008C000F0086AD7
:1002A800000E0E86026484EF01F0F00E0214D8A44A
:1002B8006CEF01F0023A01380F0B02260138F00BFF
:1002C800016E00380F0B01260038F00B006E0E840B
:1002D800D89002BE31EF01F00036013602360E2A00
:1002E80002BE31EF01F00036013602360E2A02BE98
:1002F80031EF01F00036013602360E2A31EF01F0F7
:1003080001C002F000C001F0006A000E0E960E88CF
:100318000264B1EF01F0F00E0214D8A49CEF01F0D2
:10032800023A01380F0B02260138F00B016E0E84D9
:10033800D89002BE31EF01F0013602360E2A02BE15
:1003480031EF01F0013602360E2A02BE31EF01F01C
:10035800013602360E2A31EF01F001C002F0016ABF
:10036800000E0E860264E1EF01F0F00E0214D8A42C
:10037800C0EF01F0023A0E84D89002BE31EF01F0CE
:1003880002360E2A02BE31EF01F002360E2A02BEF4
:1003980031EF01F002360E2A31EF01F0010E0C6E3A
:1003A8005ADEE4EF01F0020E0C6E51DEE4EF01F0CC
:1003B800040E0C6E40DEE4EF01F0080E0C6E58DE01
:0203C800120021
:0C03CA004D9060C06BF05ADE4D801200B8
:1003D6000FD0800E5A6E19D0C00E5A6E16D0940EDB
:1003E6005A6E13D0D40E5A6E10D0800E5A6E0DD09F
:1003F6005A50010AEEE05A50020AEEE05A50030A39
:10040600EEE05A50040AEEE0F0D75B04006E5A5054
:10041600002600C05AF000C06BF032DE4D905E6AD6
:100426005E505C24E96E000E5D20EA6EEE520BE033
:100436005E505C24E96E000E5D20EA6EEECF60F041
:0A044600C1DF5E2AEDD74D801200E1
:10045000939A939893909392939493968A9A8A9866
:100460008A968A948A928A90DADDD9DDD8DD8A82EA
:100470008A808A8AD1DD8A9AD2DD8A8ACDDD8A9AFB
:10048000CEDD8A8AC9DD8A9ACADD8A908A8AC4DD6D
:100490008A9AC5DD8A8AC0DD8A9A8A928A868A8A81
:1004A000BBDD8A9ABCDD8A968A808A8AB5DD8A9A03
:1004B0008A908A8AB1DD8A9AB2DD8A8AADDD8A9A0B
:1004C0008A808A8AA9DD8A9AAADD8A908A8AA4DD2E
:1004D0008A9A8A868A848A828A808A8A9DDD8A9A12
:0604E0009EDD4D801200BC
:1004E6000900F5CFE6FF0006FBE10106F9E112007F
:1004F60000C008F00B6A0C6A9E0E036E0A6A026A56
:0C050600016A006A020E0C6E6CDE12002E
:100512000B6A0C6A0A6A0350D8B4BEEF02F00A9E54
:10052200028E860E035E03BE9CEF02F0D8B49CEFEF
:1005320002F0C1EF02F0036C080E035CD8A0AAEF30
:1005420002F0036E0236026A0350D8A4D890B3EFC9
:1005520002F00350D8B4B3EF02F0D8900232032E67
:10056200AEEF02F00BBC02A0BEEF02F0D8A0BEEFCD
:1005720002F0022AD8B4C8EF02F0016ACDEF02F00D
:100582000B800BAED1EF02F0016AD1EF02F0010E47
:100592000C6ED2DDD3EF02F0000E0C6ED3EF02F040
:0A05A200FF0E0C6E0250006E1200F6
:1005AC00086A096A000E076203645BEF03F00250ED
:1005BC0006180A6E075003267E0ED8A0ECEF02F048
:1005CC00035ED8B05FEF03F0F0EF02F0035ED8A04B
:1005DC0063EF03F0028E068E02C00EF001C00BF02A
:1005EC0000C00DF000500402F4CF0CF001500502D5
:1005FC00F4CF00F0F3CF08F00402F3500C26F450C3
:10060C000822000E00220D500502F3500C26F45067
:10061C000822000E002202500402F3500826F45067
:10062C00002202500502016A000E0122F35000263E
:10063C00F45001220D500602F3500826F45000220B
:10064C00026A000E012202220B500602F350002611
:10065C00F4500122000E02220E500602F350012625
:10066C00F450022202BE43EF03F008360036013686
:10067C0002360306D8B463EF03F056EF03F0D880CC
:10068C00800E08640030000E002201220222D8A045
:10069C0056EF03F0023201320032034A5FEF03F0EF
:1006AC000AAE029E000E65EF03F0010EDFDC65EF73
:1006BC0003F0020EBEDC65EF03F0040ECADC120080
:1006CC000001616B626B5AC063F05BC064F0800E1A
:1006DC005B18006E800E005C02E1000E5A5C0BE2AF
:1006EC00010E616F000E626F5A500008636F5BC0A1
:1006FC0064F0000E645763C065F064C066F05CC0C3
:10070C0067F05DC068F021DD060E5E6E000E5F6E58
:10071C00000E006E5F50005C02E15E50000819E2B2
:10072C005E505C24E16E5F505D20E26E010E5E5CFB
:10073C00006E000E5F58016E00505C24E96E015093
:10074C005D20EA6EEECFE6FF010E5E5E000E5F5A94
:10075C00DFD75CC0E1FF5DC0E2FF200EE66E6151A9
:10076C0062111AE05E6A5F6A5E505C24E96E5F504B
:10077C005D20EA6EEE50200A03E15E4A5F2AF4D750
:10078C00010E5E5E000E5F5A5E505C24E16E5F509F
:0A079C005D20E26E2D0EE66E1200E5
:1007A60098EC04F0566A576A586A596A070E926EB0
:1007B600F80E0F01386F040E966E8D6A46DE010E36
:1007C60000016B6F5DDC0C0E6B6F5ADC010E5A6E0E
:1007D600010E5B6E330E5C6E000E5D6EF9DD0F0171
:1007E60048954887FF0E4B6F54875485556B4A854D
:1007F6009694C80ED56E640ED66EA00EF26E000EDE
:1008060080B0010E566E56522AE05650571827E011
:100816005852010ED8A4000E016E01C058F00150C6
:10082600010A0FE1010E00016B6F2ADC010E5A6E00
:10083600010E5B6E240E5C6E000E5D6EC9DD8D8052
:100846000ED00001010E6B6F1BDC010E5A6E010EFD
:100856005B6E150E5C6E000E5D6EBADD8D9056C039
:1008660057F05850010A43E180A207D04250010ACE
:1008760004E1592A426A59C055FF80A407D0425064
:10088600010A04E15906426A59C055FF59C000F0F1
:100896002FDE140E046EAE0E056E470E066E7D0E2E
:1008A600076E81DE33DE00C05AF0000E5B6E4E0E20
:1008B6005C6E000E5D6E07DF020E5A6E010E5B6EF9
:1008C600450E5C6E000E5D6E83DD020E5A6E050EE1
:1008D6005B6E4E0E5C6E000E5D6E7ADD020E5A6E1B
:1008E6000B0E5B6E430E5C6E000E5D6E71DD87D780
:0208F600FFD72A
:1009300010EE15F0380E006E010E016EF80EF66E18
:0E094000080EF76E000EF86E73EC02F0120057
:0F08F800564549434F4C4F205350454E544F00E7
:0F090700564549434F4C4F2041434345534F0002
:0F091600564549434F4C4F205350454E544F00C8
:0109250000D1
:020926002500AA
:080928004D4F544F52453A00B7
:020000040030CA
:0D000100231F3CFFBF81FF0FC00FE00F4029
:00000001FF
