:04000000F4EF01F028
:10000800F2A407D0F29A050E1E26000E1F22F28ACD
:10001800F2949EAC06D09E9C010E156EC2829E8CF8
:040028009E9C110089
:10002C000F0E0C6E470E0D6E0D2EFED70C2EFCD740
:06003C00000000001200AC
:06004200000000001200A6
:0A004800210E0D6E0D2EFED71200E2
:10005200086A096A100E0C6E01340836093604501B
:10006200085E0550D8A0053C095ED8B007D0045000
:1000720008260550D8B0053C0926D890003601362E
:060082000C2EEAD712006B
:1000880044BE02D08A9601D08A8644BC02D08A94A3
:1000980001D08A8444BA02D08A9201D08A8244B8B4
:1000A80002D08A9001D08A8020B002D08A8801D0FC
:1000B8008A988A8AC2DF8A9A44B602D08A9601D080
:1000C8008A8644B402D08A9401D08A8444B202D089
:1000D8008A9201D08A8244B002D08A9001D08A8064
:1000E80020B002D08A8801D08A988A8AA6DF8A9AA4
:0C00F80020A002D097DF01D0A3DF12008F
:0C01040020903DC044F0BEDF20801200BF
:10011000416A050E415C0AE241503F24E16E000E47
:100120004020E26E200EE66E412AF3D741503F2474
:10013000E16E000E4020E26EE66A410641503F2427
:10014000426E000E4020436E0A0E046E000E056ED5
:100150003DC000F03EC001F07CDF08C000F009C0E7
:1001600001F0300E002642C0E1FF43C0E2FF00C0B4
:10017000E6FF0A0E046E000E056E3DC000F03EC0A4
:1001800001F067DF00C03DF001C03EF0000E011835
:1001900002E1000E001801E102D04106CFD71200A3
:1001A0000900F5CFE6FF0006FBE10106F9E11200C8
:1001B000939A939893909392939493968A9A8A9809
:1001C0008A968A948A928A9031DF30DF2FDF8A8282
:1001D0008A808A8A36DF8A9A29DF8A8A32DF8A9A77
:1001E00025DF8A8A2EDF8A9A21DF8A908A8A29DF90
:1001F0008A9A1CDF8A8A25DF8A9A8A928A868A8A64
:1002000020DF8A9A13DF8A968A808A8A1ADF8A9A7E
:100210008A908A8A16DF8A9A09DF8A8A12DF8A9A86
:100220008A808A8A0EDF8A9A01DF8A908A8A09DFA9
:100230008A9A8A868A848A828A808A8A02DF8A9A4D
:06024000F5DE2080120033
:10024600396A3A6A33C03BF034C03CF0800E341849
:10025600006E800E005C02E1000E335C0BE2010EC4
:10026600396E000E3A6E335000083B6E34C03CF0D7
:10027600000E3C563BC03DF03CC03EF035C03FF062
:1002860036C040F042DF060E376E000E386E000EA6
:10029600006E3850005C02E13750000819E2375012
:1002A6003524E16E38503620E26E010E375C006E62
:1002B600000E3858016E00503524E96E0150362084
:1002C600EA6EEECFE6FF010E375E000E385ADFD734
:1002D60035C0E1FF36C0E2FF200EE66E39503A1017
:1002E6001AE0376A386A37503524E96E38503620B6
:1002F600EA6EEE50200A03E1374A382AF4D7010E97
:10030600375E000E385A37503524E16E38503620A5
:08031600E26E2D0EE66E1200EE
:10031E000B6A0A6A096A00500402F4CF09F0F3CF9F
:10032E0008F001500502F4CF0BF0F3CF0AF00050A5
:10033E000502F3500926F4500A22E86A0B220150F6
:10034E000402F3500926F4500A22E86A0B2208C070
:10035E0000F009C001F00AC002F00BC003F0120059
:10036E000FD0800E336E19D0C00E336E16D0940E91
:10037E00336E13D0D40E336E10D0800E336E0DD07C
:10038E003350010AEEE03350020AEEE03350030A16
:10039E00EEE03350040AEEE0F0D73404006E335032
:1003AE00002600C033F000C044F067DE2090376AAC
:1003BE0037503524E96E000E3620EA6EEE520BE011
:1003CE0037503524E96E000E3620EA6EEECF3DF042
:0A03DE0092DE372AEDD720801200CE
:1003E800156A410E166E420E176E4F0E186E520E9B
:1003F800196E540E1A6E450E1B6E440E1C6E1D6A45
:100408001E0E306E1E0E316E010E326E956AFF0E94
:100418000F013B6F96943C858D940F0E926EF00EF3
:10042800386FC2DE010E446E2BDE0C0E446E28DEE1
:10043800010EC26E210EC06E928AC70ED56ED90EFD
:10044800D66EE00EF26E9D8C9E9CC28280B02FD03C
:10045800000E80B4010E2C6E000E80B6010E2E6EBA
:100468002C5205E02C502D1802E0050E31262E5294
:1004780005E02E502F1802E0050E315E31C030F035
:1004880031C033F0000E346E210E356E000E366E1C
:10049800D6DE010E336E010E346E210E356E000E5F
:1004A800366E61DF2CC02DF02EC02FF0CFD730C0B4
:1004B8008CFF000E305CD8A082D0000E80B0010EF8
:1004C800286E000E80B2010E2A6E285206E02850CF
:1004D800291803E0010E326EF28A2A5205E02A50EA
:1004E8002B1802E0326AF29A2CC029F02EC02FF0A5
:1004F800800E006E800E1F18005C02E11E5064081A
:100508001AE2325218E030C033F0000E346E210E79
:10051800356E000E366E93DE010E336E010E346EAC
:10052800210E356E000E366E1EDF300630C08CFF91
:100538001E6A1F6A8D84155241E0C4CF02F0000E76
:10054800036E023603360290023603360290060E18
:10055800016EC3CF00F0015004E00032009EFF0F8F
:10056800FBD7000E016E0250002603500122050E33
:10057800046E000E056ECFDE800E0B0A026E800E32
:100588000118025C02E10050A00818E23104016E73
:10059800026A000E025A800E006E800E0218005C7D
:1005A80002E10150305C0AE2020E336E010E346E35
:1005B800160E356E000E366ED6DE326A7AD7FFD743
:020000040030CA
:0D000100231F3CFFBF81FF0FC00FE00F4029
:00000001FF
