:10000000F5EF00F00000000000EF00F0000000003D
:0A0010000000000000000000F3D71C
:06001C00000000001200CC
:100022000F0E0C6E470E0D6E0D2EFED70C2EFCD74A
:06003200000000001200B6
:0A003800210E0D6E0D2EFED71200F2
:1000420034BE02D08A9601D08A8634BC02D08A9409
:1000520001D08A8434BA02D08A9201D08A8234B81A
:1000620002D08A9001D08A802AB002D08A8801D038
:100072008A988A8AD2DF8A9A34B602D08A9601D0C6
:100082008A8634B402D08A9401D08A8434B202D0EF
:100092008A9201D08A8234B002D08A9001D08A80BA
:1000A2002AB002D08A8801D08A988A8AB6DF8A9AD0
:0C00B2002AA002D0B5DF01D0BEDF120092
:0C00BE002A9033C034F0BEDF2A8012000C
:1000CA000900F5CFE6FF0006FBE10106F9E112009F
:1000DA00939A939893909392939493968A9A8A98E0
:1000EA008A968A948A928A9097DF96DF95DF8A8227
:1000FA008A808A8A8EDF8A9A8FDF8A8A8ADF8A9A38
:10010A008BDF8A8A86DF8A9A87DF8A908A8A81DFEA
:10011A008A9A82DF8A8A7DDF8A9A8A928A868A8A7C
:10012A0078DF8A9A79DF8A968A808A8A72DF8A9A3F
:10013A008A908A8A6EDF8A9A6FDF8A8A6ADF8A9A47
:10014A008A808A8A66DF8A9A67DF8A908A8A61DF6A
:10015A008A9A8A868A848A828A808A8A5ADF8A9ACC
:06016A005BDF2A80120099
:100170000FD0800E2E6E19D0C00E2E6E16D0940E9B
:100180002E6E13D0D40E2E6E10D0800E2E6E0DD08B
:100190002E50010AEEE02E50020AEEE02E50030A25
:1001A000EEE02E50040AEEE0F0D72F04006E2E5041
:1001B000002600C02EF000C034F043DF2A90326ADF
:1001C00032503024E96E000E3120EA6EEE520BE020
:1001D00032503024E96E000E3120EA6EEECF33F05B
:0A01E0006EDF322AEDD72A801200EC
:1001EA0053EC01F02D6A190E946EE60E0F013A6F68
:1001FA0096943C85929838896BDF010E346E1CDF29
:10020A000C0E346E19DF010E2E6E010E2F6E230EA8
:10021A00306E000E316EA7DF000E82B0010E2B6E1B
:10022A002B50010A2CE12B502C1829E02D52010EDB
:10023A00D8A4000E016E01C02DF00150000A0EE193
:10024A00010E346EF9DE010E2E6E010E2F6E150EA2
:10025A00306E000E316E87DF8D9489982D50010A19
:10026A000EE1010E346EE8DE010E2E6E010E2F6EC7
:10027A001C0E306E000E316E76DF8D8489882BC09D
:06028A002CF0CAD7FFD7DB
:1002A60010EE15F0150E006E010E016E900EF66E34
:0E02B600020EF76E000EF86E65EC00F01200FE
:070290005350454E544F008E
:0702970041434345534F00B2
:07029E005350454E544F0080
:020000040030CA
:0D000100231F3CFFBF81FF0FC00FE00F4029
:00000001FF
