:04000000E9EF01F033
:0E0008009EAC04D0010E156E9E9CC2821100AB
:0A001600210E0D6E0D2EFED7120014
:100020000F0E0C6E470E0D6E0D2EFED70C2EFCD74C
:06003000000000001200B8
:06003600000000001200B2
:10003C00086A096A100E0C6E013408360936045031
:10004C00085E0550D8A0053C095ED8B007D0045016
:10005C0008260550D8B0053C0926D8900036013644
:06006C000C2EEAD7120081
:1000720048BE02D08A9601D08A8648BC02D08A94B1
:1000820001D08A8448BA02D08A9201D08A8248B8C2
:1000920002D08A9001D08A8016B002D08A8801D01C
:1000A2008A988A8AC7DF8A9A48B602D08A9601D08D
:1000B2008A8648B402D08A9401D08A8448B202D097
:1000C2008A9201D08A8248B002D08A9001D08A8076
:1000D20016B002D08A8801D08A988A8AABDF8A9ABF
:0C00E20016A002D09CDF01D095DF1200B8
:1000EE00456A050E455C0AE245504324E16E000E5A
:1000FE004420E26E200EE66E452AF3D74550432487
:10010E00E16E000E4420E26EE66A45064550432439
:10011E00466E000E4420476E0A0E046E000E056EEB
:10012E0041C000F042C001F082DF08C000F009C0FB
:10013E0001F0300E002646C0E1FF47C0E2FF00C0CE
:10014E00E6FF0A0E046E000E056E41C000F042C0BE
:10015E0001F06DDF00C041F001C042F0000E011849
:10016E0002E1000E001801E102D04506CFD71200C1
:0C017E00169041C048F076DF1680120099
:10018A00939A939893909392939493968A9A8A982F
:10019A008A968A948A928A903EDF3DDF3CDF8A8281
:1001AA008A808A8A43DF8A9A36DF8A8A3FDF8A9A76
:1001BA0032DF8A8A3BDF8A9A2EDF8A908A8A36DF82
:1001CA008A9A29DF8A8A32DF8A9A8A928A868A8A70
:1001DA002DDF8A9A20DF8A968A808A8A27DF8A9A7E
:1001EA008A908A8A23DF8A9A16DF8A8A1FDF8A9A86
:1001FA008A808A8A1BDF8A9A0EDF8A908A8A16DFA9
:10020A008A9A8A868A848A828A808A8A0FDF8A9A66
:06021A0002DF1680120055
:100220000900F5CFE6FF0006FBE10106F9E1120047
:100230000FD0800E376E19D0C00E376E16D0940EC8
:10024000376E13D0D40E376E10D0800E376E0DD0AF
:100250003750010AEEE03750020AEEE03750030A49
:10026000EEE03750040AEEE0F0D73804006E375065
:10027000002600C037F000C048F0FBDE16903B6A55
:100280003B503924E96E000E3A20EA6EEE520BE044
:100290003B503924E96E000E3A20EA6EEECF41F071
:0A02A0006EDF3B2AEDD71680120036
:1002AA003D6A3E6A37C03FF038C040F0800E3818C9
:1002BA00006E800E005C02E1000E375C0BE2010E5C
:1002CA003D6E000E3E6E375000083F6E38C040F05B
:1002DA00000E40563FC041F040C042F039C043F0E2
:1002EA003AC044F0FFDE060E3B6E000E3C6E000E76
:1002FA00006E3C50005C02E13B50000819E23B50A2
:10030A003924E16E3C503A20E26E010E3B5C006EED
:10031A00000E3C58016E00503924E96E01503A2013
:10032A00EA6EEECFE6FF010E3B5E000E3C5ADFD7C7
:10033A0039C0E1FF3AC0E2FF200EE66E3D503E10A2
:10034A001AE03B6A3C6A3B503924E96E3C503A2039
:10035A00EA6EEE50200A03E13B4A3C2AF4D7010E2A
:10036A003B5E000E3C5A3B503924E16E3C503A2029
:08037A00E26E2D0EE66E12008A
:100382000B6A0A6A096A00500402F4CF09F0F3CF3B
:1003920008F001500502F4CF0BF0F3CF0AF0005041
:1003A2000502F3500926F4500A22E86A0B22015092
:1003B2000402F3500926F4500A22E86A0B2208C00C
:1003C20000F009C001F00AC002F00BC003F01200F5
:1003D200156A2D6A2E6A2F6A306A316A326A336A66
:1003E200346A356A366A958A958C958E0F013B6B15
:1003F2009280388195803B819684C6DE010E486EDC
:1004020037DE0C0E486E34DE010E376E010E386E8A
:10041200170E396E000E3A6E0ADF020E376E010EAB
:10042200386E1E0E396E000E3A6E01DFC294C2960D
:10043200C298C29AC29CC090C080C090C096C0862A
:10044200C096C08EC280C194C196C190C1920F0164
:1004520048954887FF0E4B6F54875485070E4A6FA5
:1004620096949D8C9E9CF28CF28EC282000E83BA70
:10047200010E2E6E000E83BC010E2F6E000E83BE87
:10048200010E306E2E5207E02E50311804E0FF0E9E
:100492002D5CD8A02D2A2F5207E02F50321804E0ED
:1004A2002D500008D8A02D06305204E030503318E9
:1004B200D8A42D6A2EC031F02FC032F030C033F0F4
:1004C2001550010A2AE13650000A27E1C4CF25F06F
:1004D200C3CF34F0000E356E25C000F0000E016E61
:1004E200003601360090003601360090C3500026D7
:1004F200000E0122050E046E000E056E41DF00C0E3
:1005020034F001C035F0156AC294C296C288C29A0C
:10051200C28C010E366E156A1BD0C4CF55FFC29431
:10052200C296C298C29AC29C366A156AC3CF37F085
:10053200000E386E260E396E000E3A6EB5DE020ED1
:10054200376E060E386E260E396E000E3A6E6FDE6C
:100552002DC037F0000E386E170E396E000E3A6E4F
:10056200A3DE010E376E010E386E170E396E000EC5
:100572003A6E5DDE34C037F035C038F01E0E396E8B
:10058200000E3A6E91DE020E376E010E386E1E0EAE
:0C059200396E000E3A6E4BDE69D7FFD7C1
:020000040030CA
:0D000100231F3CFFBF81FF0FC00FE00F4029
:00000001FF
