:10000000C4EF01F00000000000EF00F0000000006D
:0A0010000000000000000000F3D71C
:0A001C00210E0D6E0D2EFED712000E
:100026000F0E0C6E470E0D6E0D2EFED70C2EFCD746
:06003600000000001200B2
:06003C00000000001200AC
:10004200086A096A100E0C6E01340836093604502B
:10005200085E0550D8A0053C095ED8B007D0045010
:1000620008260550D8B0053C0926D890003601363E
:060072000C2EEAD712007B
:1000780035BE02D08A9601D08A8635BC02D08A94D1
:1000880001D08A8435BA02D08A9201D08A8235B8E2
:1000980002D08A9001D08A8015B002D08A8801D017
:1000A8008A988A8AC7DF8A9A35B602D08A9601D09A
:1000B8008A8635B402D08A9401D08A8435B202D0B7
:1000C8008A9201D08A8235B002D08A9001D08A8083
:1000D80015B002D08A8801D08A988A8AABDF8A9ABA
:0C00E80015A002D09CDF01D095DF1200B3
:1000F400326A050E325C0AE232503024E16E000EA0
:100104003120E26E200EE66E322AF3D732503024CC
:10011400E16E000E3120E26EE66A3206325030247F
:10012400336E000E3120346E0A0E046E000E056E1E
:100134002EC000F02FC001F082DF08C000F009C01B
:1001440001F0300E002633C0E1FF34C0E2FF00C0EE
:10015400E6FF0A0E046E000E056E2EC000F02FC0DE
:1001640001F06DDF00C02EF001C02FF0000E011869
:1001740002E1000E001801E102D03206CFD71200CE
:0C01840015902EC035F076DF15801200BB
:100190000FD0800E246E19D0C00E246E16D0940E8F
:1001A000246E13D0D40E246E10D0800E246E0DD089
:1001B0002450010AEEE02450020AEEE02450030A23
:1001C000EEE02450040AEEE0F0D72504006E24503F
:1001D000002600C024F000C035F04EDF1590286ADC
:1001E00028502624E96E000E2720EA6EEE520BE01E
:1001F00028502624E96E000E2720EA6EEECF2EF05E
:0A020000C1DF282AEDD71580120097
:10020A00939A939893909392939493968A9A8A98AE
:10021A008A968A948A928A9001DF00DFFFDE8A82B8
:10022A008A808A8A06DF8A9AF9DE8A8A02DF8A9AAD
:10023A00F5DE8A8AFEDE8A9AF1DE8A908A8AF9DEF9
:10024A008A9AECDE8A8AF5DE8A9A8A928A868A8A6B
:10025A00F0DE8A9AE3DE8A968A808A8AEADE8A9AB7
:10026A008A908A8AE6DE8A9AD9DE8A8AE2DE8A9ABF
:10027A008A808A8ADEDE8A9AD1DE8A908A8AD9DEE2
:10028A008A9A8A868A848A828A808A8AD2DE8A9A24
:06029A00C5DE1580120014
:1002A0000900F5CFE6FF0006FBE10106F9E11200C7
:1002B0002A6A2B6A24C02CF025C02DF0800E251848
:1002C000006E800E005C02E1000E245C0BE2010E69
:1002D0002A6E000E2B6E245000082C6E25C02DF0C7
:1002E000000E2D562CC02EF02DC02FF026C030F061
:1002F00027C031F0FFDE060E286E000E296E000EBC
:10030000006E2950005C02E12850000819E22850D4
:100310002624E16E29502720E26E010E285C006E33
:10032000000E2958016E00502624E96E0150272046
:10033000EA6EEECFE6FF010E285E000E295ADFD7E7
:1003400026C0E1FF27C0E2FF200EE66E2A502B10E8
:100350001AE0286A296A28502624E96E29502720A5
:10036000EA6EEE50200A03E1284A292AF4D7010E4A
:10037000285E000E295A28502624E16E2950272095
:08038000E26E2D0EE66E120084
:100388001D6A1E6A1F6A206A216A226A236A958A80
:10039800958C958E0F013B6B34DF010E356E68DE50
:1003A8000C0E356E65DE010E246E010E256E160EDE
:1003B800266E000E276EE8DE000E83BA010E1E6E52
:1003C800000E83BC010E1F6E000E83BE010E206E50
:1003D8001E5207E01E50211804E0FF0E1D5CD8A035
:1003E8001D2A1F5207E01F50221804E01D50000864
:1003F800D8A01D06205204E020502318D8A41D6A56
:100408001EC021F01FC022F020C023F01DC024F020
:10041800000E256E160E266E000E276E45DF010EA5
:10042800246E010E256E160E266E000E276EACDEAB
:04043800C3D7FFD750
:020000040030CA
:0D000100231F3CFFBF81FF0FC00FE00F4029
:00000001FF
