:04000000C8EF01F054
:10000800F29EF2A409D0F294190E1526000E1622BB
:0C001800190E1726000E1822F28E11009F
:100024000F0E0C6E470E0D6E0D2EFED70C2EFCD748
:06003400000000001200B4
:0A003A00210E0D6E0D2EFED71200F0
:06004400000000001200A4
:10004A004BBE02D08A9601D08A864BBC02D08A94D3
:10005A0001D08A844BBA02D08A9201D08A824BB8E4
:10006A0002D08A9001D08A801DB002D08A8801D03D
:10007A008A988A8AE2DF8A9A4BB602D08A9601D097
:10008A008A864BB402D08A9401D08A844BB202D0B9
:10009A008A9201D08A824BB002D08A9001D08A809B
:1000AA001DB002D08A8801D08A988A8AC6DF8A9AC5
:0C00BA001DA002D0B2DF01D0BBDF12009D
:1000C600086A096A100E0C6E0134083609360450A7
:1000D600085E0550D8A0053C095ED8B007D004508C
:1000E60008260550D8B0053C0926D89000360136BA
:0600F6000C2EEAD71200F7
:1000FC00486A050E485C0AE248504624E16E000E40
:10010C004720E26E200EE66E482AF3D7485046246C
:10011C00E16E000E4720E26EE66A4806485046241F
:10012C00496E000E47204A6E0A0E046E000E056ED4
:10013C0044C000F045C001F0C0DF08C000F009C0A9
:10014C0001F0300E002649C0E1FF4AC0E2FF00C0BA
:10015C00E6FF0A0E046E000E056E44C000F045C0AA
:10016C0001F0ABDF00C044F001C045F0000E0118F7
:10017C0002E1000E001801E102D04806CFD71200B0
:0C018C001D9044C04BF05BDF1D80120092
:10019800939A939893909392939493968A9A8A9821
:1001A8008A968A948A928A9039DF38DF37DF8A8282
:1001B8008A808A8A43DF8A9A31DF8A8A3FDF8A9A6D
:1001C8002DDF8A8A3BDF8A9A29DF8A908A8A36DF7E
:1001D8008A9A24DF8A8A32DF8A9A8A928A868A8A67
:1001E8002DDF8A9A1BDF8A968A808A8A27DF8A9A75
:1001F8008A908A8A23DF8A9A11DF8A8A1FDF8A9A7D
:100208008A808A8A1BDF8A9A09DF8A908A8A16DF9F
:100218008A9A8A868A848A828A808A8A0FDF8A9A58
:06022800FDDE1D80120046
:10022E000900F5CFE6FF0006FBE10106F9E1120039
:10023E00406A416A3AC042F03BC043F0800E3B1820
:10024E00006E800E005C02E1000E3A5C0BE2010EC5
:10025E00406E000E416E3A500008426E3BC043F0B5
:10026E00000E435642C044F043C045F03CC046F039
:10027E003DC047F03CDF060E3E6E000E3F6E000E98
:10028E00006E3F50005C02E13E50000819E23E5005
:10029E003C24E16E3F503D20E26E010E3E5C006E4E
:1002AE00000E3F58016E00503C24E96E01503D2077
:1002BE00EA6EEECFE6FF010E3E5E000E3F5ADFD72E
:1002CE003CC0E1FF3DC0E2FF200EE66E4050411003
:1002DE001AE03E6A3F6A3E503C24E96E3F503D2094
:1002EE00EA6EEE50200A03E13E4A3F2AF4D7010E91
:1002FE003E5E000E3F5A3E503C24E16E3F503D2084
:08030E00E26E2D0EE66E1200F6
:100316000FD0800E3A6E19D0C00E3A6E16D0940EDB
:100326003A6E13D0D40E3A6E10D0800E3A6E0DD0BF
:100336003A50010AEEE03A50020AEEE03A50030A59
:10034600EEE03A50040AEEE0F0D73B04006E3A5075
:10035600002600C03AF000C04BF074DE1D903E6AE5
:100366003E503C24E96E000E3D20EA6EEE520BE054
:100376003E503C24E96E000E3D20EA6EEECF44F07E
:0A03860002DF3E2AEDD71D801200B1
:10039000156A166A176A186A300E196E1A6A300ED4
:1003A0001B6E1C6A010E1E6E800E1F6E206AF40EFC
:1003B000216E010E226EDC0E236E050E246E640E7D
:1003C000256E000E266E276A286A296A2A6A2B6A19
:1003D0002C6A2D6A2E6A2F6A306A316A326A956AEF
:1003E0008C6A1F0E926EE00E0F01386F1F0E946E16
:1003F000FE0E3A6FD1DE010E4B6E27DE0C0E4B6EF9
:1004000024DE010E3A6E010E3B6E190E3C6E000E9C
:100410003D6E81DFC70ED56E3D0ED66EA00EF26E1C
:10042000800E2218006E800E1618005C02E1155036
:10043000215C2BE22050000A0BE11E508C24006E40
:100440001F5000248C6E1E361E901F321F9E12D02D
:100450001EC002F00232029E02C01EF01FC001F058
:100460000136019001C01FF002508C5C006E0150FB
:10047000005C8C6E8C50FF0A02E1010E206E8C50E5
:10048000000AD8B4206A156A166A800E030A006E44
:10049000800E1818005C02E11750E80806E22850A8
:1004A000010A03E1176A186A272A000E80B0010EBC
:1004B000296E000E80B2010E2A6E000E80B4010E6D
:1004C0002B6E000E80B6010E2C6E000E80B8010E51
:1004D0002D6E295205E02D50291802E0010E286EDC
:1004E0002A5204E02E502A18D8A4286A2B520DE074
:1004F0002F502B180AE0276A010E3A6E010E3B6E50
:100500001B0E3C6E000E3D6E06DF2C5211E030508B
:100510002C180EE0800E2218006E800E2418005C4D
:1005200002E12350215C04E2320E2126000E222239
:100530002D5211E031502D180EE0800E2618006E5D
:10054000800E2218005C02E12150255C04E2320E8C
:10055000215E000E225A29C02DF02AC02EF02BC099
:100560002FF02CC030F02DC031F0000E82B0010E03
:10057000316E315215E03250311812E027C03AF096
:10058000000E3B6E330E3C6E000E3D6E58DE010ECB
:100590003A6E010E3B6E330E3C6E000E3D6EBBDEBE
:0405A0003FD7FFD76B
:0105A4000155
:0105A50080D5
:0105A6000054
:0205A700F4015D
:0205A900DC056F
:0205AB006400EA
:0105AD00004D
:0105AE00004C
:0405AF000000000048
:0405B3000000000044
:0105B7000043
:0105B8000042
:020000040030CA
:0D000100231F3CFFBF81FF0FC00FE00F4029
:00000001FF
