:0400000079EF02F0A2
:10000800F29EF2A403D0F2941C4A1D2AF28E11002B
:0A001800210E0D6E0D2EFED7120012
:100022000F0E0C6E470E0D6E0D2EFED70C2EFCD74A
:06003200000000001200B6
:06003800000000001200B0
:10003E00086A096A100E0C6E01340836093604502F
:10004E00085E0550D8A0053C095ED8B007D0045014
:10005E0008260550D8B0053C0926D8900036013642
:06006E000C2EEAD712007F
:1000740057BE02D08A9601D08A8657BC02D08A9491
:1000840001D08A8457BA02D08A9201D08A8257B8A2
:1000940002D08A9001D08A802CB002D08A8801D004
:1000A4008A988A8AC7DF8A9A57B602D08A9601D07C
:1000B4008A8657B402D08A9401D08A8457B202D077
:1000C4008A9201D08A8257B002D08A9001D08A8065
:1000D4002CB002D08A8801D08A988A8AABDF8A9AA7
:0C00E4002CA002D09CDF01D095DF1200A0
:0C00F0002C9050C057F0BEDF2C80120096
:1000FC00546A050E545C0AE254505224E16E000E10
:10010C005320E26E200EE66E542AF3D7545052243C
:10011C00E16E000E5320E26EE66A540654505224EF
:10012C00556E000E5320566E0A0E046E000E056EB0
:10013C0050C000F051C001F07CDF08C000F009C0D5
:10014C0001F0300E002655C0E1FF56C0E2FF00C0A2
:10015C00E6FF0A0E046E000E056E50C000F051C092
:10016C0001F067DF00C050F001C051F0000E011823
:10017C0002E1000E001801E102D05406CFD71200A4
:10018C000134083609360450085E0550D8A0053CE9
:10019C00095E003601360F0E0C6E01340836093636
:1001AC00045000A006D0085E0550D8A0053C095E9E
:1001BC0005D008260550D8B0053C09260036013676
:1001CC000C2EEBD700B006D0045008260550D8B042
:0801DC00053C09260000120099
:1001E4000FD0800E466E19D0C00E466E16D0940EF7
:1001F400466E13D0D40E466E10D0800E466E0DD0CF
:100204004650010AEEE04650020AEEE04650030A68
:10021400EEE04650040AEEE0F0D74704006E465084
:10022400002600C046F000C057F022DF2C904A6A36
:100234004A504824E96E000E4920EA6EEE520BE063
:100244004A504824E96E000E4920EA6EEECF50F081
:0A0254004DDF4A2AEDD72C8012007E
:10025E00939A939893909392939493968A9A8A985A
:10026E008A968A948A928A90D5DED4DED3DE8A82EA
:10027E008A808A8ADADE8A9ACDDE8A8AD6DE8A9ADF
:10028E00C9DE8A8AD2DE8A9AC5DE8A908A8ACDDE55
:10029E008A9AC0DE8A8AC9DE8A9A8A928A868A8A6F
:1002AE00C4DE8A9AB7DE8A968A808A8ABEDE8A9AE7
:1002BE008A908A8ABADE8A9AADDE8A8AB6DE8A9AEF
:1002CE008A808A8AB2DE8A9AA5DE8A908A8AADDE12
:1002DE008A9A8A868A848A828A808A8AA6DE8A9AFC
:0602EE0099DE2C801200D5
:1002F4000900F5CFE6FF0006FBE10106F9E1120073
:100304000450000A08E10550000A05E1FF0E006EE2
:100314007F0E016E57D00D6A096A086A01500010F9
:10032400D8B4000C015005180A6E0ABE0D1E0B6AE3
:1003340005AE05D0041E051E042AD8B4052A01AE54
:1003440005D0001E011E002AD8B4012A0150051050
:100354000A6E0ABE10D018DF0BB020D00DAE000C10
:10036400001E011E002AD8B4012A081E091E082AEC
:10037400D8B4092A000C05AE0DD001BE07D0015037
:10038400096E0050086E016A006AE8D7016A006AC3
:10039400002A000C011E001E0B2ADDD7082AD8B43F
:1003A400092A0450085CD8A4D9D70550095CD8A4FC
:1003B400D5D7096A086A002AD8B4012A01AECED773
:0603C4000000FF0C120016
:1003CA004C6A4D6A46C04EF047C04FF0800E47183F
:1003DA00006E800E005C02E1000E465C0BE2010E2C
:1003EA004C6E000E4D6E465000084E6E47C04FF0E0
:1003FA00000E4F564EC050F04FC051F048C052F058
:10040A0049C053F076DE060E4A6E000E4B6E000EA1
:10041A00006E4B50005C02E14A50000819E24A5053
:10042A004824E16E4B504920E26E010E4A5C006E90
:10043A00000E4B58016E00504824E96E01504920C5
:10044A00EA6EEECFE6FF010E4A5E000E4B5ADFD788
:10045A0048C0E1FF49C0E2FF200EE66E4C504D1045
:10046A001AE04A6A4B6A4A504824E96E4B504920BE
:10047A00EA6EEE50200A03E14A4A4B2AF4D7010EEB
:10048A004A5E000E4B5A4A504824E16E4B504920AE
:08049A00E26E2D0EE66E120069
:1004A2000B6A0A6A096A00500402F4CF09F0F3CF1A
:1004B20008F001500502F4CF0BF0F3CF0AF0005020
:1004C2000502F3500926F4500A22E86A0B22015071
:1004D2000402F3500926F4500A22E86A0B2208C0EB
:1004E20000F009C001F00AC002F00BC003F01200D4
:1004F20094EC03F03C6A3D6A3E6A190E3F6E406A14
:10050200416A426A436A446A456A94800F013A9199
:1005120096943C8594863A9794883A999FDE010E88
:10052200576EA7DD0C0E576EA4DD010E466E010E4E
:10053200476E150E486E000E496E53DE92800F0113
:100542003881C294C296C298C29AC29CC080C0929C
:10055200C094C096C098C08AC09EC080C280C30E9C
:10056200D56EF28AF294F28EC282000E82B0010E31
:100572003D6E3D503E1826E03D50010A23E13C52BB
:10058200010ED8A4000E016E01C03CF00150010A18
:100592000DE1010E576E6DDD010E466E010E476EC6
:1005A2001E0E486E000E496E1CDE0CD0010E576EF8
:1005B20060DD010E466E010E476E250E486E000E7E
:1005C200496E0FDE3DC03EF03C50010AD8A49DD0DA
:1005D200000E82B6010E406E000E82B8010E426E0F
:1005E2004050411807E04050010A04E1320E3F5CDE
:1005F200D8A03F2A4250431807E04250010A04E1C2
:100602003F500A08D8A03F0640C041F042C043F024
:10061200800E030A006E800E1D18005C02E11C5061
:10062200E8084FE21C6A1D6AC282C4CF44F0000E81
:10063200456E44C000F045C001F00036009001361E
:10064200003600900136050E046E000E056E28DF9E
:10065200E80E046E030E056E54DE00C044F001C0C5
:1006620045F0030E036E00C002F0035004E00236B0
:100672000290FF0FFBD70A0E0224036E03C02DF077
:100682003F50010F016E026A000E0222800E021814
:10069200006E800E005C02E10350015C0FE33F0438
:1006A200016E026A000E025A800E006E800E02185F
:1006B200005C02E101502D5C01E302D08D8401D087
:1006C2008D943FC046F0000E476E350E486E000E08
:1006D200496E7ADE020E466E030E476E350E486E86
:1006E200000E496E7EDD2DC046F0000E476E2E0EC6
:1006F200486E000E496E68DE020E466E010E476EAF
:0E0702002E0E486E000E496E6CDD2FD7FFD70D
:1007280010EE15F0170E006E010E016E100EF66E2B
:0E073800070EF76E000EF86E7AEC01F012005C
:070710005350454E544F0009
:020717000000E0
:0707190041434345534F002B
:070720005350454E544F00F9
:020000040030CA
:0D000100231F3CFFBF81FF0FC00FE00F4029
:00000001FF
