:1000000053EF02F00000000000EF00F000000000DD
:0A0010000000000000000000F3D71C
:0A001C00210E0D6E0D2EFED712000E
:100026000F0E0C6E470E0D6E0D2EFED70C2EFCD746
:06003600000000001200B2
:06003C00000000001200AC
:10004200086A096A100E0C6E01340836093604502B
:10005200085E0550D8A0053C095ED8B007D0045010
:1000620008260550D8B0053C0926D890003601363E
:060072000C2EEAD712007B
:100078004CBE02D08A9601D08A864CBC02D08A94A3
:1000880001D08A844CBA02D08A9201D08A824CB8B4
:1000980002D08A9001D08A802AB002D08A8801D002
:1000A8008A988A8AC7DF8A9A4CB602D08A9601D083
:1000B8008A864CB402D08A9401D08A844CB202D089
:1000C8008A9201D08A824CB002D08A9001D08A806C
:1000D8002AB002D08A8801D08A988A8AABDF8A9AA5
:0C00E8002AA002D09CDF01D095DF12009E
:0C00F4002A9045C04CF0BEDF2A801200AC
:100100000134083609360450085E0550D8A0053C75
:10011000095E003601360F0E0C6E013408360936C2
:10012000045000A006D0085E0550D8A0053C095E2A
:1001300005D008260550D8B0053C09260036013602
:100140000C2EEBD700B006D0045008260550D8B0CE
:08015000053C09260000120025
:10015800496A050E495C0AE249504724E16E000EDF
:100168004820E26E200EE66E492AF3D7495047240C
:10017800E16E000E4820E26EE66A490649504724BF
:100188004A6E000E48204B6E0A0E046E000E056E75
:1001980045C000F046C001F050DF08C000F009C0BB
:1001A80001F0300E00264AC0E1FF4BC0E2FF00C05C
:1001B800E6FF0A0E046E000E056E45C000F046C04C
:1001C80001F03BDF00C045F001C046F0000E011809
:1001D80002E1000E001801E102D04906CFD7120053
:1001E800939A939893909392939493968A9A8A98D1
:1001F8008A968A948A928A9012DF11DF10DF8A82A7
:100208008A808A8A17DF8A9A0ADF8A8A13DF8A9A9B
:1002180006DF8A8A0FDF8A9A02DF8A908A8A0ADFD3
:100228008A9AFDDE8A8A06DF8A9A8A928A868A8A6A
:1002380001DF8A9AF4DE8A968A808A8AFBDE8A9AA5
:100248008A908A8AF7DE8A9AEADE8A8AF3DE8A9AAE
:100258008A808A8AEFDE8A9AE2DE8A908A8AEADED1
:100268008A9A8A868A848A828A808A8AE3DE8A9A35
:06027800D6DE2A80120010
:10027E000900F5CFE6FF0006FBE10106F9E11200E9
:10028E000FD0800E3B6E19D0C00E3B6E16D0940E62
:10029E003B6E13D0D40E3B6E10D0800E3B6E0DD045
:1002AE003B50010AEEE03B50020AEEE03B50030ADF
:1002BE00EEE03B50040AEEE0F0D73C04006E3B50FB
:1002CE00002600C03BF000C04CF0CFDE2A903F6A03
:1002DE003F503D24E96E000E3E20EA6EEE520BE0DA
:1002EE003F503D24E96E000E3E20EA6EEECF45F003
:0A02FE00FADE3F2AEDD72A80120035
:100308000450000A08E10550000A05E1FF0E006EDE
:100318007F0E016E57D00D6A096A086A01500010F5
:10032800D8B4000C015005180A6E0ABE0D1E0B6ADF
:1003380005AE05D0041E051E042AD8B4052A01AE50
:1003480005D0001E011E002AD8B4012A015005104C
:100358000A6E0ABE10D0D0DE0BB020D00DAE000C55
:10036800001E011E002AD8B4012A081E091E082AE8
:10037800D8B4092A000C05AE0DD001BE07D0015033
:10038800096E0050086E016A006AE8D7016A006ABF
:10039800002A000C011E001E0B2ADDD7082AD8B43B
:1003A800092A0450085CD8A4D9D70550095CD8A4F8
:1003B800D5D7096A086A002AD8B4012A01AECED76F
:0603C8000000FF0C120012
:1003CE00416A426A3BC043F03CC044F0800E3C1888
:1003DE00006E800E005C02E1000E3B5C0BE2010E33
:1003EE00416E000E426E3B500008436E3CC044F01E
:1003FE00000E445643C045F044C046F03DC047F0A1
:10040E003EC048F0A2DE060E3F6E000E406E000E9D
:10041E00006E4050005C02E13F50000819E23F5070
:10042E003D24E16E40503E20E26E010E3F5C006EB8
:10043E00000E4058016E00503D24E96E01503E20E2
:10044E00EA6EEECFE6FF010E3F5E000E405ADFD79A
:10045E003DC0E1FF3EC0E2FF200EE66E415042106D
:10046E001AE03F6A406A3F503D24E96E40503E20FC
:10047E00EA6EEE50200A03E13F4A402AF4D7010EFD
:10048E003F5E000E405A3F503D24E16E40503E20EC
:08049E00E26E2D0EE66E120065
:1004A6002BEC03F0386A010E396E3A6A190E946E17
:1004B600E60E0F013A6F92983889956AFF0E3B6FE8
:1004C600010E8C6E8EDE010E4C6ED3DD0C0E4C6E64
:1004D600D0DD010E3B6E010E3C6E1C0E3D6E000E15
:1004E6003E6ED2DE96840F013C95486BFF0EBB6EC6
:1004F60054875485556B070EBA6E9694000E82B0DB
:10050600010E2B6E2B50010A2CE12B502C1829E0E2
:100516003852010ED8A4000E016E01C038F0015009
:10052600000A0EE1010E4C6EA4DD010E3B6E010EBB
:100536003C6E230E3D6E000E3E6EA6DE8D948998AF
:100546003850010A0EE1010E4C6E93DD010E3B6E32
:10055600010E3C6E150E3D6E000E3E6E95DE8D84D0
:1005660089882BC02CF03850010A65E1000E82B64E
:10057600010E2D6E000E82B8010E2F6E2D50010A4F
:100586000FE12D502E180CE0080E395C09E2392ACD
:10059600010E3A6E020E8C24006E395000188C6ED5
:1005A6002F50010A0FE12F5030180CE03950000887
:1005B60009E23906010E3A6E020E8C5C006E395065
:1005C60000188C6E2DC02EF02FC030F039C03BF0D5
:1005D600000E3C6E310E3D6E000E3E6EF5DE020ED6
:1005E6003B6E010E3C6E310E3D6E000E3E6E4CDED5
:1005F6008CCF3BF0000E3C6E310E3D6E000E3E6E13
:10060600E3DE020E3B6E050E3C6E310E3D6E000EB5
:100616003E6E3ADE3A50010A0EE1BB503902F3CF84
:1006260000F0F4CF01F0080E046E000E056E69DED0
:0A06360000C055FF3A6A62D7FFD7F3
:1006560010EE15F0150E006E010E016E400EF66ED0
:0E066600060EF76E000EF86E3FEC01F012006B
:0706400041434345534F0005
:070647005350454E544F00D3
:07064E005350454E544F00CC
:020000040030CA
:0D000100231F3CFFBF81FF0FC00FE00F4029
:00000001FF
