:10000000F5EF00F00000000000EF00F0000000003D
:0A0010000000000000000000F3D71C
:06001C00000000001200CC
:100022000F0E0C6E470E0D6E0D2EFED70C2EFCD74A
:06003200000000001200B6
:0A003800210E0D6E0D2EFED71200F2
:100042002DBE02D08A9601D08A862DBC02D08A9417
:1000520001D08A842DBA02D08A9201D08A822DB828
:1000620002D08A9001D08A8023B002D08A8801D03F
:100072008A988A8AD2DF8A9A2DB602D08A9601D0CD
:100082008A862DB402D08A9401D08A842DB202D0FD
:100092008A9201D08A822DB002D08A9001D08A80C1
:1000A20023B002D08A8801D08A988A8AB6DF8A9AD7
:0C00B20023A002D0B5DF01D0BEDF120099
:0C00BE0023902CC02DF0BEDF2380120028
:1000CA000900F5CFE6FF0006FBE10106F9E112009F
:1000DA00939A939893909392939493968A9A8A98E0
:1000EA008A968A948A928A9097DF96DF95DF8A8227
:1000FA008A808A8A8EDF8A9A8FDF8A8A8ADF8A9A38
:10010A008BDF8A8A86DF8A9A87DF8A908A8A81DFEA
:10011A008A9A82DF8A8A7DDF8A9A8A928A868A8A7C
:10012A0078DF8A9A79DF8A968A808A8A72DF8A9A3F
:10013A008A908A8A6EDF8A9A6FDF8A8A6ADF8A9A47
:10014A008A808A8A66DF8A9A67DF8A908A8A61DF6A
:10015A008A9A8A868A848A828A808A8A5ADF8A9ACC
:06016A005BDF23801200A0
:100170000FD0800E276E19D0C00E276E16D0940EA9
:10018000276E13D0D40E276E10D0800E276E0DD0A0
:100190002750010AEEE02750020AEEE02750030A3A
:1001A000EEE02750040AEEE0F0D72804006E275056
:1001B000002600C027F000C02DF043DF23902B6AFB
:1001C0002B502924E96E000E2A20EA6EEE520BE035
:1001D0002B502924E96E000E2A20EA6EEECF2CF077
:0A01E0006EDF2B2AEDD723801200FA
:1001EA00410E156E430E166E430E176E450E186EAF
:1001FA00530E196E4F0E1A6E1B6A530E1C6E500E5A
:10020A001D6E450E1E6E4E0E1F6E540E206E4F0E44
:10021A00216E226A246A256A266A94800F013A911D
:10022A0096943C8555DF010E2D6E06DF0C0E2D6E61
:10023A0003DF000E82B0010E256E2550261828E035
:10024A002550010A25E12452010ED8A4000E016EA0
:10025A0001C024F00150010A0EE18D84010E2D6EB9
:10026A00EBDE010E276E010E286E150E296E000EAA
:10027A002A6E79DF0DD08D94010E2D6EDDDE010E12
:10028A00276E010E286E1C0E296E000E2A6E6BDF79
:08029A0025C026F0CED7FFD7E6
:020000040030CA
:0D000100231F3CFFBF81FF0FC00FE00F4029
:00000001FF
