:0400000089EF02F092
:10000800F29EF2A403D0F294154A162AF28E110039
:0A001800210E0D6E0D2EFED7120012
:100022000F0E0C6E470E0D6E0D2EFED70C2EFCD74A
:06003200000000001200B6
:06003800000000001200B0
:10003E00086A096A100E0C6E01340836093604502F
:10004E00085E0550D8A0053C095ED8B007D0045014
:10005E0008260550D8B0053C0926D8900036013642
:06006E000C2EEAD712007F
:100074005FBE02D08A9601D08A865FBC02D08A9481
:1000840001D08A845FBA02D08A9201D08A825FB892
:1000940002D08A9001D08A802CB002D08A8801D004
:1000A4008A988A8AC7DF8A9A5FB602D08A9601D074
:1000B4008A865FB402D08A9401D08A845FB202D067
:1000C4008A9201D08A825FB002D08A9001D08A805D
:1000D4002CB002D08A8801D08A988A8AABDF8A9AA7
:0C00E4002CA002D09CDF01D095DF1200A0
:1000F0005C6A050E5C5C0AE25C505A24E16E000EFC
:100100005B20E26E200EE66E5C2AF3D75C505A2428
:10011000E16E000E5B20E26EE66A5C065C505A24DB
:100120005D6E000E5B205E6E0A0E046E000E056EA4
:1001300058C000F059C001F082DF08C000F009C0CB
:1001400001F0300E00265DC0E1FF5EC0E2FF00C09E
:10015000E6FF0A0E046E000E056E58C000F059C08E
:1001600001F06DDF00C058F001C059F0000E011819
:1001700002E1000E001801E102D05C06CFD71200A8
:100180000134083609360450085E0550D8A0053CF5
:10019000095E003601360F0E0C6E01340836093642
:1001A000045000A006D0085E0550D8A0053C095EAA
:1001B00005D008260550D8B0053C09260036013682
:1001C0000C2EEBD700B006D0045008260550D8B04E
:0801D000053C092600001200A5
:0C01D8002C9058C05FF04ADF2C80120011
:1001E4000900F5CFE6FF0006FBE10106F9E1120084
:1001F400939A939893909392939493968A9A8A98C5
:100204008A968A948A928A900ADF09DF08DF8A82B2
:100214008A808A8A0FDF8A9A02DF8A8A0BDF8A9AA7
:10022400FEDE8A8A07DF8A9AFADE8A908A8A02DFE9
:100234008A9AF5DE8A8AFEDE8A9A8A928A868A8A6F
:10024400F9DE8A9AECDE8A968A808A8AF3DE8A9AB2
:100254008A908A8AEFDE8A9AE2DE8A8AEBDE8A9ABA
:100264008A808A8AE7DE8A9ADADE8A908A8AE2DEDD
:100274008A9A8A868A848A828A808A8ADBDE8A9A31
:06028400CEDE2C8012000A
:10028A000FD0800E4E6E19D0C00E4E6E16D0940E40
:10029A004E6E13D0D40E4E6E10D0800E4E6E0DD010
:1002AA004E50010AEEE04E50020AEEE04E50030AAA
:1002BA00EEE04E50040AEEE0F0D74F04006E4E50C6
:1002CA00002600C04EF000C05FF0CFDE2C90526ACC
:1002DA0052505024E96E000E5120EA6EEE520BE0A5
:1002EA0052505024E96E000E5120EA6EEECF58F0BB
:0A02FA006EDF522AEDD72C801200AF
:100304000B6A0A6A096A00500402F4CF09F0F3CFB9
:1003140008F001500502F4CF0BF0F3CF0AF00050BF
:100324000502F3500926F4500A22E86A0B22015010
:100334000402F3500926F4500A22E86A0B2208C08A
:1003440000F009C001F00AC002F00BC003F0120073
:100354000450000A08E10550000A05E1FF0E006E92
:100364007F0E016E57D00D6A096A086A01500010A9
:10037400D8B4000C015005180A6E0ABE0D1E0B6A93
:1003840005AE05D0041E051E042AD8B4052A01AE04
:1003940005D0001E011E002AD8B4012A0150051000
:1003A4000A6E0ABE10D0EADE0BB020D00DAE000CEF
:1003B400001E011E002AD8B4012A081E091E082A9C
:1003C400D8B4092A000C05AE0DD001BE07D00150E7
:1003D400096E0050086E016A006AE8D7016A006A73
:1003E400002A000C011E001E0B2ADDD7082AD8B4EF
:1003F400092A0450085CD8A4D9D70550095CD8A4AC
:10040400D5D7096A086A002AD8B4012A01AECED722
:060414000000FF0C1200C5
:10041A00800E4F18006E800E005C02E1000E4E5CEA
:10042A0003E34EC000F003D04E500008006E1200E5
:10043A00546A556A4EC056F04FC057F0800E4F1896
:10044A00006E800E005C02E1000E4E5C0BE2010EB3
:10045A00546E000E556E4E500008566E4FC057F03F
:10046A00000E575656C058F057C059F050C05AF0AF
:10047A0051C05BF038DE060E526E000E536E000E4F
:10048A00006E5350005C02E15250000819E25250CB
:10049A005024E16E53505120E26E010E525C006E00
:1004AA00000E5358016E00505024E96E015051203D
:1004BA00EA6EEECFE6FF010E525E000E535ADFD708
:1004CA0050C0E1FF51C0E2FF200EE66E54505510B5
:1004DA001AE0526A536A52505024E96E535051201E
:1004EA00EA6EEE50200A03E1524A532AF4D7010E6B
:1004FA00525E000E535A52505024E16E535051200E
:08050A00E26E2D0EE66E1200F8
:10051200D6EC03F0446A456A466A190E476E486A89
:10052200496A4A6A4B6A4C6A4D6A94800F013A9151
:1005320094863A9794883A995CDE010E5F6E99DD53
:100542000C0E5F6E96DD010E4E6E010E4F6E1E0E8C
:10055200506E000E516E98DE92800F013881C29467
:10056200C296C298C29AC29CC080C092C094C096E1
:10057200C098C08AC09EC08096843C85486B070E96
:10058200BA6EFF0EBB6E54875485556B9694C2802B
:10059200C30ED56EF28AF294F28EC282000E82B03F
:1005A200010E456E4550461826E04550010A23E1EA
:1005B2004452010ED8A4000E016E01C044F0015055
:1005C200010A0DE1010E5F6E54DD010E4E6E010E49
:1005D2004F6E250E506E000E516E56DE0CD0010E7F
:1005E2005F6E47DD010E4E6E010E4F6E170E506E9E
:1005F200000E516E49DE45C046F04450010AD8A4AF
:10060200C6D0000E82B6010E486E000E82B8010EF0
:100612004A6E4850491807E04850010A04E1320E78
:10062200475CD8A0472A4A504B1807E04A50010AB3
:1006320004E147500A08D8A0470648C049F04AC01A
:100642004BF0800E030A006E800E1618005C02E169
:100652001550E80866E2156A166AC282C4CF4CF0E9
:10066200000E4D6E4CC000F04DC001F000360090FF
:100672000136003600900136050E046E000E056E3E
:1006820040DEE80E046E030E056E63DE00C04CF021
:1006920001C04DF0030E026E00C04EF001C04FF0DB
:1006A200025005E04E364E904F36FF0FFAD70A0E33
:1006B2004E2647504E5E4F6A000E4F5AADDE00C0C6
:1006C2002DF0010E005C05E20F01556B5499549B0D
:1006D20028D0010E2D5C000ED8B0010E016E015023
:1006E20004081AE3210E2D02F3CF00F0210E005C64
:1006F200046E04C02EF0BB50010F006E016A000EA2
:100702000122000E056EFDDD640E046E000E056E04
:1007120020DE00C055FF05D0FF0E0F01556F548932
:10072200548B2EC04EF0000E4F6E360E506E000EE1
:10073200516E82DE020E4E6E040E4F6E360E506EFB
:10074200000E516EA1DD55CF4EF0000E4F6E2F0EF2
:10075200506E000E516E70DE020E4E6E010E4F6E26
:100762002F0E506E000E516E8FDD2DC04EF0000E1A
:100772004F6E3D0E506E000E516E5EDE020E4E6EDC
:10078200070E4F6E3D0E506E000E516E7DDD06D788
:02079200FFD78F
:1007AC0010EE15F0170E006E010E016E940EF66E23
:0E07BC00070EF76E000EF86EF2EC00F0120061
:02079400000063
:070796005350454E544F0083
:07079D005350454E544F007C
:0707A40041434345534F00A0
:020000040030CA
:0D000100231F3CFFBF81FF0FC00FE00F4029
:00000001FF
