:10000000EAEF01F00000000000EF00F00000000047
:0A0010000000000000000000F3D71C
:10001C000F0E0C6E470E0D6E0D2EFED70C2EFCD750
:06002C00000000001200BC
:0A003200210E0D6E0D2EFED71200F8
:06003C00000000001200AC
:1000420057BE02D08A9601D08A8657BC02D08A94C3
:1000520001D08A8457BA02D08A9201D08A8257B8D4
:1000620002D08A9001D08A802BB002D08A8801D037
:100072008A988A8AE2DF8A9A57B602D08A9601D093
:100082008A8657B402D08A9401D08A8457B202D0A9
:100092008A9201D08A8257B002D08A9001D08A8097
:1000A2002BB002D08A8801D08A988A8AC6DF8A9ABF
:0C00B2002BA002D0B2DF01D0BBDF120097
:1000BE00086A096A100E0C6E0134083609360450AF
:1000CE00085E0550D8A0053C095ED8B007D0045094
:1000DE0008260550D8B0053C0926D89000360136C2
:0600EE000C2EEAD71200FF
:1000F400546A050E545C0AE254505224E16E000E18
:100104005320E26E200EE66E542AF3D75450522444
:10011400E16E000E5320E26EE66A540654505224F7
:10012400556E000E5320566E0A0E046E000E056EB8
:1001340050C000F051C001F0C0DF08C000F009C099
:1001440001F0300E002655C0E1FF56C0E2FF00C0AA
:10015400E6FF0A0E046E000E056E50C000F051C09A
:1001640001F0ABDF00C050F001C051F0000E0118E7
:1001740002E1000E001801E102D05406CFD71200AC
:0C0184002B9050C057F05BDF2B80120066
:10019000939A939893909392939493968A9A8A9829
:1001A0008A968A948A928A9039DF38DF37DF8A828A
:1001B0008A808A8A43DF8A9A31DF8A8A3FDF8A9A75
:1001C0002DDF8A8A3BDF8A9A29DF8A908A8A36DF86
:1001D0008A9A24DF8A8A32DF8A9A8A928A868A8A6F
:1001E0002DDF8A9A1BDF8A968A808A8A27DF8A9A7D
:1001F0008A908A8A23DF8A9A11DF8A8A1FDF8A9A85
:100200008A808A8A1BDF8A9A09DF8A908A8A16DFA7
:100210008A9A8A868A848A828A808A8A0FDF8A9A60
:06022000FDDE2B80120040
:100226000900F5CFE6FF0006FBE10106F9E1120041
:1002360046C004F047C005F004C002F005C003F054
:10024600044A052A48C000F049C001F0484A492A34
:1002560000C0E9FF01C0EAFF02C0E1FF03C0E2FF00
:10026600EECFE6FF02C0E9FF03C0EAFFEE5201E06F
:0C027600E3D746C000F047C001F01200C2
:100282004C6A4D6A46C04EF047C04FF0800E471888
:10029200006E800E005C02E1000E465C0BE2010E75
:1002A2004C6E000E4D6E465000084E6E47C04FF029
:1002B200000E4F564EC050F04FC051F048C052F0A1
:1002C20049C053F016DF060E4A6E000E4B6E000E4A
:1002D200006E4B50005C02E14A50000819E24A509D
:1002E2004824E16E4B504920E26E010E4A5C006EDA
:1002F200000E4B58016E00504824E96E015049200F
:10030200EA6EEECFE6FF010E4A5E000E4B5ADFD7D1
:1003120048C0E1FF49C0E2FF200EE66E4C504D108E
:100322001AE04A6A4B6A4A504824E96E4B50492007
:10033200EA6EEE50200A03E14A4A4B2AF4D7010E34
:100342004A5E000E4B5A4A504824E16E4B504920F7
:08035200E26E2D0EE66E1200B2
:10035A000FD0800E466E19D0C00E466E16D0940E7F
:10036A00466E13D0D40E466E10D0800E466E0DD057
:10037A004650010AEEE04650020AEEE04650030AF1
:10038A00EEE04650040AEEE0F0D74704006E46500D
:10039A00002600C046F000C057F04EDE2B904A6A95
:1003AA004A504824E96E000E4920EA6EEE520BE0EC
:1003BA004A504824E96E000E4920EA6EEECF50F00A
:0A03CA00DCDE4A2AEDD72B8012007A
:1003D40030EC02F0F00E446ED80E456ED7DE010EFE
:1003E400576E2DDE0C0E576E2ADE330E466E000E4F
:1003F400476E150E486E000E496E1BDF010E466EE9
:10040400040E476E330E486E000E496EA4DF44C0DE
:1004140046F045C047F02C0E486E000E496E2FDFA3
:10042400020E466E050E476E2C0E486E000E496E87
:1004340092DF020E466E010E476E260E486E000EC7
:06044400496E89DFFFD7BD
:1004600010EE15F0160E006E010E016E4A0EF66EBD
:0E047000040EF76E000EF86E13EC01F0120091
:10044A004369616F4369616F4369616F4369616FB2
:01045A0000A1
:05045B005269733D0031
:020000040030CA
:0D000100231F3CFFBF81FF03C003E003404D
:00000001FF
