:04000000C8EF01F054
:10000800F29EF2A409D0F294190E1526000E1622BB
:0C001800190E1726000E1822F28E11009F
:06002400000000001200C4
:10002A000F0E0C6E470E0D6E0D2EFED70C2EFCD742
:06003A00000000001200AE
:0A004000210E0D6E0D2EFED71200EA
:10004A00086A096A100E0C6E013408360936045023
:10005A00085E0550D8A0053C095ED8B007D0045008
:10006A0008260550D8B0053C0926D8900036013636
:06007A000C2EEAD7120073
:1000800039BE02D08A9601D08A8639BC02D08A94C1
:1000900001D08A8439BA02D08A9201D08A8239B8D2
:1000A00002D08A9001D08A8019B002D08A8801D00B
:1000B0008A988A8AB7DF8A9A39B602D08A9601D09E
:1000C0008A8639B402D08A9401D08A8439B202D0A7
:1000D0008A9201D08A8239B002D08A9001D08A8077
:1000E00019B002D08A8801D08A988A8A9BDF8A9ABE
:0C00F00019A002D09ADF01D0A3DF12009B
:0C00FC00199032C039F0BEDF19801200EC
:10010800366A050E365C0AE236503424E16E000E7B
:100118003520E26E200EE66E362AF3D736503424A8
:10012800E16E000E3520E26EE66A3606365034245B
:10013800376E000E3520386E0A0E046E000E056EFE
:1001480032C000F033C001F07CDF08C000F009C005
:1001580001F0300E002637C0E1FF38C0E2FF00C0D2
:10016800E6FF0A0E046E000E056E32C000F033C0C2
:1001780001F067DF00C032F001C033F0000E011853
:1001880002E1000E001801E102D03606CFD71200B6
:10019800939A939893909392939493968A9A8A9821
:1001A8008A968A948A928A903CDF3BDF3ADF8A8279
:1001B8008A808A8A33DF8A9A34DF8A8A2FDF8A9A8A
:1001C80030DF8A8A2BDF8A9A2CDF8A908A8A26DF98
:1001D8008A9A27DF8A8A22DF8A9A8A928A868A8A74
:1001E8001DDF8A9A1EDF8A968A808A8A17DF8A9A92
:1001F8008A908A8A13DF8A9A14DF8A8A0FDF8A9A9A
:100208008A808A8A0BDF8A9A0CDF8A908A8A06DFBC
:100218008A9A8A868A848A828A808A8AFFDE8A9A69
:0602280000DF1980120046
:10022E000900F5CFE6FF0006FBE10106F9E1120039
:10023E000FD0800E286E19D0C00E286E16D0940ED8
:10024E00286E13D0D40E286E10D0800E286E0DD0CE
:10025E002850010AEEE02850020AEEE02850030A68
:10026E00EEE02850040AEEE0F0D72904006E285084
:10027E00002600C028F000C039F0FBDE19902C6A71
:10028E002C502A24E96E000E2B20EA6EEE520BE063
:10029E002C502A24E96E000E2B20EA6EEECF32F09F
:0A02AE0026DF2C2AEDD7198012007C
:1002B8002E6A2F6A28C030F029C031F0800E291824
:1002C800006E800E005C02E1000E285C0BE2010E5D
:1002D8002E6E000E2F6E28500008306E29C031F0A7
:1002E800000E315630C032F031C033F02AC034F03D
:1002F8002BC035F005DF060E2C6E000E2D6E000E9D
:10030800006E2D50005C02E12C50000819E22C50C0
:100318002A24E16E2D502B20E26E010E2C5C006E1B
:10032800000E2D58016E00502A24E96E01502B2032
:10033800EA6EEECFE6FF010E2C5E000E2D5ADFD7D7
:100348002AC0E1FF2BC0E2FF200EE66E2E502F10D0
:100358001AE02C6A2D6A2C502A24E96E2D502B2085
:10036800EA6EEE50200A03E12C4A2D2AF4D7010E3A
:100378002C5E000E2D5A2C502A24E16E2D502B2075
:08038800E26E2D0EE66E12007C
:10039000156A166A176A186A010E216E800E226E9F
:1003A000236A246AF40E256E010E266E276A956A6A
:1003B000836AF2DE010E396E63DE0C0E396E60DE8A
:1003C000C70ED56E3D0ED66EA00EF26E800E2618AC
:1003D000006E800E1618005C02E11550255C29E2C3
:1003E0002350000A09E121502426225024262136D8
:1003F00021902232229E10D021C002F00232029EB1
:1004000002C021F022C000F00036009000C022F0AF
:100410000250245E0050245E2450FF0A02E1010EC7
:10042000236E2450000AD8B4236A24C083FF156ABF
:10043000166A800E030A006E800E1818005C02E136
:100440001750E80815E2176A186A272A27C028F00B
:10045000000E296E1A0E2A6E000E2B6E2DDF010E75
:10046000286E010E296E1A0E2A6E000E2B6EE7DE24
:04047000ADD7FFD72E
:020000040030CA
:0D000100231F3CFFBF81FF0FC00FE00F4029
:00000001FF
