:04000000C4EF01F058
:10000800F2A407D0F29A050E1626000E1722F28ADD
:04001800F29411004D
:10001C000F0E0C6E470E0D6E0D2EFED70C2EFCD750
:06002C00000000001200BC
:06003200000000001200B6
:0A003800210E0D6E0D2EFED71200F2
:10004200086A096A100E0C6E01340836093604502B
:10005200085E0550D8A0053C095ED8B007D0045010
:1000620008260550D8B0053C0926D890003601363E
:060072000C2EEAD712007B
:1000780031BE02D08A9601D08A8631BC02D08A94D9
:1000880001D08A8431BA02D08A9201D08A8231B8EA
:1000980002D08A9001D08A8015B002D08A8801D017
:1000A8008A988A8AC2DF8A9A31B602D08A9601D0A3
:1000B8008A8631B402D08A9401D08A8431B202D0BF
:1000C8008A9201D08A8231B002D08A9001D08A8087
:1000D80015B002D08A8801D08A988A8AA6DF8A9ABF
:0C00E80015A002D097DF01D0A3DF1200AA
:0C00F40015902AC031F0BEDF158012000C
:100100002E6A050E2E5C0AE22E502C24E16E000EA3
:100110002D20E26E200EE66E2E2AF3D72E502C24D0
:10012000E16E000E2D20E26EE66A2E062E502C2483
:100130002F6E000E2D20306E0A0E046E000E056E1E
:100140002AC000F02BC001F07CDF08C000F009C01D
:1001500001F0300E00262FC0E1FF30C0E2FF00C0EA
:10016000E6FF0A0E046E000E056E2AC000F02BC0DA
:1001700001F067DF00C02AF001C02BF0000E01186B
:1001800002E1000E001801E102D02E06CFD71200C6
:10019000939A939893909392939493968A9A8A9829
:1001A0008A968A948A928A9039DF38DF37DF8A828A
:1001B0008A808A8A3EDF8A9A31DF8A8A3ADF8A9A7F
:1001C0002DDF8A8A36DF8A9A29DF8A908A8A31DF90
:1001D0008A9A24DF8A8A2DDF8A9A8A928A868A8A74
:1001E00028DF8A9A1BDF8A968A808A8A22DF8A9A87
:1001F0008A908A8A1EDF8A9A11DF8A8A1ADF8A9A8F
:100200008A808A8A16DF8A9A09DF8A908A8A11DFB1
:100210008A9A8A868A848A828A808A8A0ADF8A9A65
:06022000FDDE1580120056
:10022600266A276A20C028F021C029F0800E2118EE
:10023600006E800E005C02E1000E205C0BE2010EF7
:10024600266E000E276E20500008286E21C029F069
:10025600000E295628C02AF029C02BF022C02CF007
:1002660023C02DF04ADF060E246E000E256E000E0A
:10027600006E2550005C02E12450000819E224506B
:100286002224E16E25502320E26E010E245C006ECE
:10029600000E2558016E00502224E96E01502320DD
:1002A600EA6EEECFE6FF010E245E000E255ADFD77A
:1002B60022C0E1FF23C0E2FF200EE66E2650271083
:1002C6001AE0246A256A24502224E96E2550232048
:1002D600EA6EEE50200A03E1244A252AF4D7010EDD
:1002E600245E000E255A24502224E16E2550232038
:0802F600E26E2D0EE66E12000F
:1002FE000900F5CFE6FF0006FBE10106F9E1120069
:10030E000FD0800E206E19D0C00E206E16D0940E17
:10031E00206E13D0D40E206E10D0800E206E0DD015
:10032E002050010AEEE02050020AEEE02050030AAF
:10033E00EEE02050040AEEE0F0D72104006E2050CB
:10034E00002600C020F000C031F08FDE1590246A28
:10035E0024502224E96E000E2320EA6EEE520BE0AA
:10036E0024502224E96E000E2320EA6EEECF2AF0EE
:0A037E00BADE242AEDD71580120024
:100388001E0E1F6E956AFF0E0F013B6F96943C85FB
:100398008D941FC08CFFF8DE010E316E69DE0C0EE5
:1003A800316E66DEC70ED56ED90ED66EE00EF26ED1
:1003B800000E1F5C22E3800E006E800E1718005C92
:1003C80002E11650640818E21FC020F0000E216EEA
:1003D800180E226E000E236E22DF010E206E010E13
:1003E800216E180E226E000E236E8DDF1F061FC0B1
:0C03F8008CFF166A176A8D84DBD7FFD7D4
:020000040030CA
:0D000100231F3CFFBF81FF0FC00FE00F4029
:00000001FF
