:0400000024EF02F0F7
:10000800F29EF2A409D0F294190E2326000E24229F
:0C001800190E2526000E2622F28E110083
:100024000F0E0C6E470E0D6E0D2EFED70C2EFCD748
:06003400000000001200B4
:0A003A00210E0D6E0D2EFED71200F0
:06004400000000001200A4
:10004A0000017ABF02D08A9601D08A867ABD02D090
:10005A008A9401D08A847ABB02D08A9201D08A8299
:10006A007AB902D08A9001D08A8031B002D08A88C7
:10007A0001D08A988A8AE1DF8A9A7AB702D08A9668
:10008A0001D08A867AB502D08A9401D08A847AB35A
:10009A0002D08A9201D08A827AB102D08A9001D0A3
:1000AA008A8031B002D08A8801D08A988A8AC5DFCC
:0E00BA008A9A31A002D0B1DF01D0BADF120065
:1000C800086A096A100E0C6E0134083609360450A5
:1000D800085E0550D8A0053C095ED8B007D004508A
:1000E80008260550D8B0053C0926D89000360136B8
:0600F8000C2EEAD71200F5
:0C00FE00319073C07AF0A2DF3180120054
:10010A000001776B050E775D0AE277517525E16E7E
:10011A00000E7621E26E200EE66E772BF3D777512A
:10012A007525E16E000E7621E26EE66A7707775151
:10013A007525786F000E7621796F0A0E046E000E0F
:10014A00056E73C000F074C001F0B9DF08C000F09A
:10015A0009C001F0300E002678C0E1FF79C0E2FF45
:10016A0000C0E6FF0A0E046E000E056E73C000F0B2
:10017A0074C001F0A4DF00C073F001C074F0000E77
:10018A00011802E1000E001801E102D07707CFD76B
:02019A00120051
:10019C00939A939893909392939493968A9A8A981D
:1001AC008A968A948A928A9037DF36DF35DF8A8284
:1001BC008A808A8A41DF8A9A2FDF8A8A3DDF8A9A6F
:1001CC002BDF8A8A39DF8A9A27DF8A908A8A34DF82
:1001DC008A9A22DF8A8A30DF8A9A8A928A868A8A67
:1001EC002BDF8A9A19DF8A968A808A8A25DF8A9A77
:1001FC008A908A8A21DF8A9A0FDF8A8A1DDF8A9A7F
:10020C008A808A8A19DF8A9A07DF8A908A8A14DFA1
:10021C008A9A8A868A848A828A808A8A0DDF8A9A56
:06022C00FBDE3180120030
:100232000900F5CFE6FF0006FBE10106F9E1120035
:1002420069C004F06AC005F004C002F005C003F002
:10025200044A052A6BC000F06CC001F000016B4B30
:100262006C2B00C0E9FF01C0EAFF02C0E1FF03C03E
:10027200E2FFEECFE6FF02C0E9FF03C0EAFFEE5263
:0E02820001E0E2D769C000F06AC001F012008E
:1002900000016F6B706B69C071F06AC072F0800E04
:1002A0006A19006E800E005C02E1000E695D0BE2CF
:1002B000010E6F6F000E706F69510008716F6AC098
:1002C00072F0000E725771C073F072C074F06BC0A0
:1002D00075F06CC076F019DF060E6D6F000E6E6F54
:1002E000000E006E6E51005C02E16D51000819E2D3
:1002F0006D516B25E16E6E516C21E26E010E6D5DEC
:10030000006E000E6E59016E00506B25E96E0150B3
:100310006C21EA6EEECFE6FF010E6D5F000E6E5BA4
:10032000DFD76BC0E1FF6CC0E2FF200EE66E6F51BD
:1003300070111AE06D6B6E6B6D516B25E96E6E512D
:100340006C21EA6EEE50200A03E16D4B6E2BF4D760
:10035000010E6D5F000E6E5B6D516B25E16E6E518F
:0A0360006C21E26E2D0EE66E120015
:10036A0069C004F06AC005F004C0E9FF05C0EAFFED
:10037A00EE5203E0044A052AF7D704C002F005C08A
:10038A0003F0044A052A6BC000F06CC001F00001BA
:10039A006B4B6C2B00C0E9FF01C0EAFF02C0E1FF12
:1003AA0003C0E2FFEECFE6FF02C0E9FF03C0EAFFA7
:1003BA00EE5201E0E2D769C000F06AC001F0120013
:1003CA0010D0800E0001696F1AD0C00E696F17D065
:1003DA00940E696F14D0D40E696F11D0800E696FB4
:1003EA000ED000016951010AECE06951020AEDE000
:1003FA006951030AEDE06951040AEDE0EFD76A0595
:10040A00006E6951002600C069F000C07AF018DE5B
:10041A0031906D6B6D516B25E96E000E6C21EA6EA1
:10042A00EE520BE06D516B25E96E000E6C21EA6EFF
:0E043A00EECF73F05FDE6D2BEDD73180120038
:10044800EEEC03F0010E326E800E336E346AF40E59
:10045800356E010E366EDC0E376E050E386E640E84
:10046800396E000E3A6E3B6A3C6A3D6A3E6A3F6AE4
:10047800406A416A426A436A446A456A466A476A08
:10048800486A496A660E0001696F000E6A6F150EA8
:100498006B6F000E6C6FD1DE956A8C6A1F0E926EC0
:1004A800E00E0F01386F1F0E946EFE0E3A6F72DE6B
:1004B800010E00017A6FC5DD0C0E7A6FC2DD010EE8
:1004C800696F010E6A6F1B0E6B6F000E6C6F79DF20
:1004D800C70ED56E3D0ED66EA00EF26E800E361883
:1004E800006E800E2418005C02E12350355C2BE27C
:1004F8003450000A0BE132508C24006E3350002433
:100508008C6E323632903332339E12D032C002F0C3
:100518000232029E02C032F033C001F0013601906F
:1005280001C033F002508C5C006E0150005C8C6E90
:100538008C50FF0A02E1010E346E8C50000AD8B4C8
:10054800346A236A246A800E030A006E800E261815
:10055800005C02E12550E80849E23B50010A46E107
:10056800256A266A482A48503C0A07E1486A472A09
:1005780047503C0A02E1476A462A010E7A6F61DD5C
:1005880048C069F0000E6A6F580E6B6F000E6C6FF2
:100598007BDE47C069F0000E6A6F510E6B6F000E6C
:1005A8006C6F72DE46C069F0000E6A6F4A0E6B6FA0
:1005B800000E6C6F69DE49C069F0000E6A6F5F0E4D
:1005C8006B6F000E6C6F60DE660E696F000E6A6FEF
:1005D800580E6B6F000E6C6FC4DE010E696F010E52
:1005E8006A6F660E6B6F000E6C6FEBDE000E80B0EC
:1005F800010E3C6E000E80B2010E3D6E000E80B4FE
:10060800010E3E6E000E80B6010E3F6E000E80B8E1
:10061800010E406E3C5205E040503C1802E0010ECD
:100628003B6E3D5204E041503D18D8A43B6A3E520F
:1006380010E042503E180DE0486A476A466A496A27
:10064800010E696F010E6A6F290E6B6F000E6C6FD9
:10065800B8DE3F5211E043503F180EE0800E3618C6
:10066800006E800E3818005C02E13750355C04E2F9
:10067800320E3526000E3622405211E04450401802
:100688000EE0800E3A18006E800E3618005C02E10B
:100698003550395C04E2320E355E000E365A3CC0E5
:1006A80040F03DC041F03EC042F03FC043F040C082
:1006B80044F0000E82B0010E446E44526FE0455083
:1006C80044186CE048C069F0000E6A6F580E6B6FF2
:1006D800000E6C6FD9DD47C069F0000E6A6F510ECD
:1006E8006B6F000E6C6FD0DD46C069F0000E6A6F4C
:1006F8004A0E6B6F000E6C6FC7DD49C069F0000EC3
:100708006A6F5F0E6B6F000E6C6FBEDD660E696FF1
:10071800000E6A6F5F0E6B6F000E6C6F22DE660E46
:10072800696F000E6A6F270E6B6F000E6C6F19DE13
:10073800660E696F000E6A6F580E6B6F000E6C6F55
:1007480010DE660E696F000E6A6F170E6B6F000E73
:100758006C6F07DE660E696F000E6A6F510E6B6F65
:10076800000E6C6FFEDD660E696F000E6A6F190E63
:100778006B6F000E6C6FF5DD660E696F000E6A6FA9
:100788004A0E6B6F000E6C6FECDD010E696F010E87
:100798006A6F660E6B6F000E6C6F13DE9FD6FFD705
:1007DC0010EE15F01C0E006E010E016EA80EF66EDA
:0E07EC00070EF76E000EF86E19EC01F0120009
:0207A8002D0022
:0207AA003A0013
:0207AC003A0011
:0807AE00303A303A303A3000D5
:0207B600000041
:0207B80000003F
:0207BA003A0003
:0807BC00303A303A303A3000C7
:0107C4000133
:0107C50080B3
:0107C6000032
:0207C700F4013B
:0207C900DC054D
:0207CB006400C8
:0107CD00002B
:0407CE000000000027
:0407D2000000000023
:0107D6000022
:0107D7000021
:0107D8000020
:0107D900001F
:0107DA00001E
:0107DB00001D
:020000040030CA
:0D000100231F3CFFBF81FF0FC00FE00F4029
:00000001FF
