:10000000F5EF00F00000000000EF00F0000000003D
:0A0010000000000000000000F3D71C
:06001C00000000001200CC
:100022000F0E0C6E470E0D6E0D2EFED70C2EFCD74A
:06003200000000001200B6
:0A003800210E0D6E0D2EFED71200F2
:1000420050BE02D08A9601D08A8650BC02D08A94D1
:1000520001D08A8450BA02D08A9201D08A8250B8E2
:1000620002D08A9001D08A8042B002D08A8801D020
:100072008A988A8AD2DF8A9A50B602D08A9601D0AA
:100082008A8650B402D08A9401D08A8450B202D0B7
:100092008A9201D08A8250B002D08A9001D08A809E
:1000A20042B002D08A8801D08A988A8AB6DF8A9AB8
:0C00B20042A002D0B5DF01D0BEDF12007A
:0C00BE0042904FC050F0BEDF42801200A4
:1000CA000900F5CFE6FF0006FBE10106F9E112009F
:1000DA00939A939893909392939493968A9A8A98E0
:1000EA008A968A948A928A9097DF96DF95DF8A8227
:1000FA008A808A8A8EDF8A9A8FDF8A8A8ADF8A9A38
:10010A008BDF8A8A86DF8A9A87DF8A908A8A81DFEA
:10011A008A9A82DF8A8A7DDF8A9A8A928A868A8A7C
:10012A0078DF8A9A79DF8A968A808A8A72DF8A9A3F
:10013A008A908A8A6EDF8A9A6FDF8A8A6ADF8A9A47
:10014A008A808A8A66DF8A9A67DF8A908A8A61DF6A
:10015A008A9A8A868A848A828A808A8A5ADF8A9ACC
:06016A005BDF4280120081
:100170000FD0800E4A6E19D0C00E4A6E16D0940E63
:100180004A6E13D0D40E4A6E10D0800E4A6E0DD037
:100190004A50010AEEE04A50020AEEE04A50030AD1
:1001A000EEE04A50040AEEE0F0D74B04006E4A50ED
:1001B000002600C04AF000C050F043DF42904E6A73
:1001C0004E504C24E96E000E4D20EA6EEE520BE0CC
:1001D0004E504C24E96E000E4D20EA6EEECF4FF0EB
:0A01E0006EDF4E2AEDD742801200B8
:1001EA0078EC01F0446A456A466A476A486A496A8D
:1001FA00070E926EF80E0F01386F966A8D6A68DFE5
:10020A00010E506E19DF0C0E506E16DF010E4A6E8B
:10021A00010E4B6E240E4C6E000E4D6EA4DF000EC6
:10022A0080B0010E446E445228E04450451825E03F
:10023A004352010ED8A4000E016E01C043F00150D2
:10024A00010A0EE1010E506EF7DE010E4A6E010E32
:10025A004B6E150E4C6E000E4D6E85DF8D800DD0E7
:10026A00010E506EE9DE010E4A6E010E4B6E330E20
:10027A004C6E000E4D6E77DF8D9044C045F04350B2
:10028A00010A18E1000E80B2010E466E000E80B41B
:10029A00010E486E465204E046504718D8A48D8491
:1002AA00485204E048504918D8A48D9446C047F0F3
:0802BA0048C049F0B4D7FFD79A
:1002F00010EE15F02D0E006E010E016EC20EF66EA0
:0E030000020EF76E000EF86E65EC00F01200B3
:0F02C200564549434F4C4F2041434345534F004E
:0F02D100564549434F4C4F205350454E544F0014
:0F02E000564549434F4C4F205350454E544F0005
:020000040030CA
:0D000100231F3CFFBF81FF0FC00FE00F4029
:00000001FF
