:04000000EDEF01F02F
:100008009EAC05D09E9C9E9C010E156E9E8C110088
:0A001800210E0D6E0D2EFED7120012
:100022000F0E0C6E470E0D6E0D2EFED70C2EFCD74A
:06003200000000001200B6
:06003800000000001200B0
:10003E00086A096A100E0C6E01340836093604502F
:10004E00085E0550D8A0053C095ED8B007D0045014
:10005E0008260550D8B0053C0926D8900036013642
:06006E000C2EEAD712007F
:10007400000160BF02D08A9601D08A8660BD02D09A
:100084008A9401D08A8460BB02D08A9201D08A8289
:1000940060B902D08A9001D08A8043B002D08A88A5
:1000A40001D08A988A8AC6DF8A9A60B702D08A9673
:1000B40001D08A8660B502D08A9401D08A8460B364
:1000C40002D08A9201D08A8260B102D08A9001D093
:1000D4008A8043B002D08A8801D08A988A8AAADFAB
:0E00E4008A9A43A002D09BDF01D094DF120065
:1000F2005F6A050E5F5C0BE25F5000016325E16EF3
:10010200000E6421E26E200EE66E5F2AF2D7000135
:100112005F506325E16E000E6421E26EE66A5F06BF
:100122005F506325656F000E6421666F0A0E046ED0
:10013200000E056E61C000F062C001F07FDF08C0F2
:1001420000F009C001F0300E002665C0E1FF66C074
:10015200E2FF00C0E6FF0A0E046E000E056E61C0EB
:1001620000F062C001F06ADF00C061F001C062F01D
:10017200000E011802E1000E001801E102D05F0634
:04018200CFD71200C1
:0C01860043905FC060F073DF4380120004
:10019200939A939893909392939493968A9A8A9827
:1001A2008A968A948A928A903BDF3ADF39DF8A8282
:1001B2008A808A8A40DF8A9A33DF8A8A3CDF8A9A77
:1001C2002FDF8A8A38DF8A9A2BDF8A908A8A33DF86
:1001D2008A9A26DF8A8A2FDF8A9A8A928A868A8A6E
:1001E2002ADF8A9A1DDF8A968A808A8A24DF8A9A7F
:1001F2008A908A8A20DF8A9A13DF8A8A1CDF8A9A87
:100202008A808A8A18DF8A9A0BDF8A908A8A13DFA9
:100212008A9A8A868A848A828A808A8A0CDF8A9A61
:06022200FFDE4380120024
:100228000900F5CFE6FF0006FBE10106F9E112003F
:100238000FD0800E556E19D0C00E556E16D0940E84
:10024800556E13D0D40E556E10D0800E556E0DD04D
:100258005550010AEEE05550020AEEE05550030AE7
:10026800EEE05550040AEEE0F0D75604006E555003
:10027800002600C055F000C060F0F8DE4390596ACF
:1002880059505724E96E000E5820EA6EEE520BE0E2
:1002980059505724E96E000E5820EA6EEECF5FF0F1
:0A02A8006EDF592AEDD743801200E3
:1002B2005B6A5C6A55C05DF056C05EF0800E5618EF
:1002C200006E800E005C02E1000E555C0BE2010E36
:1002D2005B6E000E5C6E555000085D6E56C05EF09F
:1002E200000E5E565DC061F05EC062F057C063F002
:1002F20058C064F0FDDE060E596E000E5A6E000EF6
:10030200006E5A50005C02E15950000819E259503F
:100312005724E16E5A505820E26E010E595C006E6D
:10032200000E5A58016E00505724E96E01505820B1
:10033200EA6EEECFE6FF010E595E000E5A5ADFD783
:1003420057C0E1FF58C0E2FF200EE66E5B505C1022
:100352001AE0596A5A6A59505724E96E5A5058207D
:10036200EA6EEE50200A03E1594A5A2AF4D7010EE6
:10037200595E000E5A5A59505724E16E5A5058206D
:08038200E26E2D0EE66E120082
:10038A000B6A0A6A096A00500402F4CF09F0F3CF33
:10039A0008F001500502F4CF0BF0F3CF0AF0005039
:1003AA000502F3500926F4500A22E86A0B2201508A
:1003BA000402F3500926F4500A22E86A0B2208C004
:1003CA0000F009C001F00AC002F00BC003F01200ED
:1003DA007AEC02F0010E546E92800F0138819580FA
:1003EA003B81946AC080C090C090C096C098C08A71
:1003FA00C294C296C298C29AC29CC09EC280C4DEEF
:10040A00010E0001606F31DE0C0E606F2EDE010EF0
:10041A00556E040E566E160E576E000E586E07DF96
:10042A009D8C9E9CF28CF28EC282020E556E040E38
:10043A00566E2D0E576E000E586EF9DE1550010AD3
:10044A003BE15450010A21E1C4CF00F0000E016ED5
:10045A00003601360090003601360090C35000265F
:10046A00000E0122050E046E000E056E89DF440E91
:10047A00556E000E566E00C057F001C058F014DFDA
:10048A00C294C296C288C29AC28C5450000A12E11F
:10049A00140EC402F3CF57F04D0E556E000E566E71
:1004AA00000E586E01DFC294C296C298C29AC29CCC
:0C04BA00C4CF8BFF156AC282C1D7FFD7E8
:1004F40010EE15F02E0E006E010E016EC60EF66E95
:0E050400040EF76E000EF86E14EC01F01200FB
:0104C6000035
:1004C7006369616F6F6F6F6F6F6F6F6F6F6F6F6F55
:0704D7006F6F6F6F6F6F0084
:1004DE006369616F6F6F6F6F6F6F6F6F6F6F6F6F3E
:0604EE006F6F6F6F6F00DD
:020000040030CA
:0D000100231F3CFFBF81FF0FC00FE00F4029
:00000001FF
