:04000000D9EF03F041
:10000800F2A408D0F29A800E2726000E2822152A7C
:06001800F294F28A1100CF
:06001E00000000001200CA
:100024000F0E0C6E470E0D6E0D2EFED70C2EFCD748
:06003400000000001200B4
:0A003A00210E0D6E0D2EFED71200F0
:100044000B820BAE2CEF00F00368026801680068B5
:080054000A360232FF0E120011
:08005C000AAE029E000E120024
:100064000B840BAE3DEF00F0010E036E026A016AD1
:0A007400006A0A360232FF0E120085
:0E007E00026A016A006A086A036A000E120034
:10008C00000160BF02D08A9601D08A8660BD02D082
:10009C008A9401D08A8460BB02D08A9201D08A8271
:1000AC0060B902D08A9001D08A804FB002D08A8881
:1000BC0001D08A988A8AADDF8A9A60B702D08A9674
:1000CC0001D08A8660B502D08A9401D08A8460B34C
:1000DC0002D08A9201D08A8260B102D08A9001D07B
:1000EC008A804FB002D08A8801D08A988A8A91DFA0
:0E00FC008A9A4FA002D090DF01D099DF120047
:10010A00086A096A100E0C6E013408360936045062
:10011A00085E0550D8A0053C095ED8B007D0045047
:10012A0008260550D8B0053C0926D8900036013675
:06013A000C2EEAD71200B2
:100140000B800BAEACEF00F0026A0AAEFF0E026E3F
:0C015000016E006E0A360232FF0E120033
:10015C005F6A050E5F5C0BE25F5000016B25E16E80
:10016C00000E6C21E26E200EE66E5F2AF2D70001C3
:10017C005F506B25E16E000E6C21E26EE66A5F0645
:10018C005F506B256D6F000E6C216E6F0A0E046E46
:10019C00000E056E69C000F06AC001F0B0DF08C047
:1001AC0000F009C001F0300E00266DC0E1FF6EC0FA
:1001BC00E2FF00C0E6FF0A0E046E000E056E69C079
:1001CC0000F06AC001F09BDF00C069F001C06AF06A
:1001DC00000E011802E1000E001801E102D05F06CA
:0401EC00CFD7120057
:1001F0000CB03AEF01F00CA2E0EF01F00E6A000E35
:10020000026451EF01F0F00E0214D8A41CEF01F0CB
:10021000023A01380F0B02260138F00B016E00384C
:100220000F0B01260038F00B006E08380F0B00266C
:100230000838F00B086E0E84D89002BE35EF01F03E
:1002400008360036013602360E2A02BE35EF01F0BE
:1002500008360036013602360E2A02BE35EF01F0AE
:1002600008360036013602360E2A0E500364D6EFE9
:1002700001F0035E0BBC08AEDBEF01F0D880800E0E
:1002800008640030000E002201220222D8A0DBEF19
:1002900001F0023201320032034AE0EF01F0DBEFFD
:1002A00001F001C002F000C001F008C000F0086ACF
:1002B000000E0E86026488EF01F0F00E0214D8A43E
:1002C00070EF01F0023A01380F0B02260138F00BF3
:1002D000016E00380F0B01260038F00B006E0E8403
:1002E000D89002BE35EF01F00036013602360E2AF4
:1002F00002BE35EF01F00036013602360E2A02BE8C
:1003000035EF01F00036013602360E2A35EF01F0E6
:1003100001C002F000C001F0006A000E0E960E88C7
:100320000264B5EF01F0F00E0214D8A4A0EF01F0C2
:10033000023A01380F0B02260138F00B016E0E84D1
:10034000D89002BE35EF01F0013602360E2A02BE09
:1003500035EF01F0013602360E2A02BE35EF01F00C
:10036000013602360E2A35EF01F001C002F0016AB3
:10037000000E0E860264E5EF01F0F00E0214D8A420
:10038000C4EF01F0023A0E84D89002BE35EF01F0BE
:1003900002360E2A02BE35EF01F002360E2A02BEE8
:1003A00035EF01F002360E2A35EF01F0010E0C6E2A
:1003B00059DEE8EF01F0020E0C6E50DEE8EF01F0BE
:1003C000040E0C6E3FDEE8EF01F0080E0C6E57DEF7
:0203D000120019
:0C03D2004F905FC060F059DE4F801200B9
:1003DE0010D0800E0001616F1AD0C00E616F17D061
:1003EE00940E616F14D0D40E616F11D0800E616FB8
:1003FE000ED000016151010AECE06151020AEDE0FC
:10040E006151030AEDE06151040AEDE0EFD7620598
:10041E00006E6151002600C061F000C060F02FDE5A
:10042E004F905D6A5D506325E96E000E6421EA6EA1
:10043E00EE520BE05D506325E96E000E6421EA6E0C
:0E044E00EECF5FF0BFDF5D2AEDD74F801200CA
:10045C00939A939893909392939493968A9A8A985A
:10046C008A968A948A928A90D7DDD6DDD5DD8A82E7
:10047C008A808A8ACEDD8A9ACFDD8A8ACADD8A9AF8
:10048C00CBDD8A8AC6DD8A9AC7DD8A908A8AC1DD6D
:10049C008A9AC2DD8A8ABDDD8A9A8A928A868A8A7B
:1004AC00B8DD8A9AB9DD8A968A808A8AB2DD8A9A00
:1004BC008A908A8AAEDD8A9AAFDD8A8AAADD8A9A08
:1004CC008A808A8AA6DD8A9AA7DD8A908A8AA1DD2B
:1004DC008A9A8A868A848A828A808A8A9ADD8A9A09
:0604EC009BDD4F801200B1
:1004F2000900F5CFE6FF0006FBE10106F9E1120073
:1005020000C008F00B6A0C6A9E0E036E0A6A026A49
:0C051200016A006A020E0C6E6ADE120024
:10051E000B6A0C6A0A6A0350D8B4C4EF02F00A9E42
:10052E00028E860E035E03BEA2EF02F0D8B4A2EFD7
:10053E0002F0C7EF02F0036C080E035CD8A0B0EF18
:10054E0002F0036E0236026A0350D8A4D890B9EFB7
:10055E0002F00350D8B4B9EF02F0D8900232032E55
:10056E00B4EF02F00BBC02A0C4EF02F0D8A0C4EFAF
:10057E0002F0022AD8B4CEEF02F0016AD3EF02F0F5
:10058E000B800BAED7EF02F0016AD7EF02F0010E2F
:10059E000C6ECFDDD9EF02F0000E0C6ED9EF02F02B
:0A05AE00FF0E0C6E0250006E1200EA
:1005B800086A096A000E0762036461EF03F00250DB
:1005C80006180A6E075003267E0ED8A0F2EF02F036
:1005D800035ED8B065EF03F0F6EF02F0035ED8A033
:1005E80069EF03F0028E068E02C00EF001C00BF018
:1005F80000C00DF000500402F4CF0CF001500502C9
:10060800F4CF00F0F3CF08F00402F3500C26F450B6
:100618000822000E00220D500502F3500C26F4505B
:100628000822000E002202500402F3500826F4505B
:10063800002202500502016A000E0122F350002632
:10064800F45001220D500602F3500826F4500022FF
:10065800026A000E012202220B500602F350002605
:10066800F4500122000E02220E500602F350012619
:10067800F450022202BE49EF03F008360036013674
:1006880002360306D8B469EF03F05CEF03F0D880B4
:10069800800E08640030000E002201220222D8A039
:1006A8005CEF03F0023201320032034A65EF03F0D7
:1006B8000AAE029E000E6BEF03F0010EDCDC6BEF5E
:1006C80003F0020EBBDC6BEF03F0040EC7DC120074
:1006D8000001656B666B61C067F062C068F0800EF0
:1006E8006219006E800E005C02E1000E615D0BE293
:1006F800010E656F000E666F61510008676F62C07A
:1007080068F0000E685767C069F068C06AF063C097
:100718006BF064C06CF01EDD060E5D6E000E5E6E42
:10072800000E006E5E50005C02E15D50000819E2A8
:100738005D506325E16E5E506421E26E010E5D5CE2
:10074800006E000E5E58016E00506325E96E015080
:100758006421EA6EEECFE6FF010E5D5E000E5E5A82
:10076800DFD763C0E1FF64C0E2FF200EE66E65518B
:1007780066111AE05D6A5E6A5D506325E96E5E5037
:100788006421EA6EEE50200A03E15D4A5E2AF4D73E
:10079800010E5D5E000E5E5A5D506325E16E5E508F
:0A07A8006421E26E2D0EE66E1200D1
:1007B200C7EC04F0586A596A5A6A5B6A5C6A070EA7
:1007C200926EF80E0F01386F040E966E8D6A45DE3A
:1007D200010E0001606F59DC0C0E606F56DC010ED9
:1007E200616F010E626F380E636F000E646FF6DD8B
:1007F2000F0148954887FF0E4B6F54875485556B00
:100802004A859694C80ED56EFF0ED66EA00EF26E75
:10081200000E80B0010E586E58522AE058505918F6
:1008220027E05A52010ED8A4000E016E01C05AF000
:100832000150010A0FE1010E0001606F26DC010E7A
:10084200616F010E626F290E636F000E646FC6DD69
:100852008D800ED00001010E606F17DC010E616FFA
:10086200010E626F180E636F000E646FB7DD8D901C
:1008720058C059F05A50010AD8A469D080A20FD0AA
:10088200800E4E0A006E800E2818005C02E127508E
:10089200200805E25B2A276A286A5BC055FF80A40C
:1008A2000FD0800E4E0A006E800E2818005C02E106
:1008B2002750200805E25B06276A286A5BC055FFBD
:1008C20000015BC000F01CDE140E046EAE0E056E5D
:1008D200470E066E7D0E076E6EDE20DE00C061F0F2
:1008E200000E626F500E636F000E646FF4DE020E34
:1008F200616F010E626F470E636F000E646F6EDDF3
:10090200020E616F050E626F500E636F000E646F10
:1009120065DD020E616F0B0E626F160E636F000EC5
:10092200646F5CDD5BC05CF05B50155CD8A08D82AF
:1009320015505C5C0BE2800E006E800E010A005CBA
:1009420002E1000E155C02E28D9201D0156A60D7B9
:02095200FFD7CD
:10098E0010EE15F03A0E006E010E016E540EF66E5C
:0E099E00090EF76E000EF86E79EC02F01200F2
:0109540000A2
:0209550025007B
:0F095700564549434F4C4F205350454E544F0087
:0209660000008F
:0F096800564549434F4C4F2041434345534F00A1
:0F097700564549434F4C4F205350454E544F0067
:080986004D4F544F52453A0059
:020000040030CA
:0D000100231F3CFFBF81FF0FC00FE00F4029
:00000001FF
